{"abi":[{"type":"constructor","inputs":[{"name":"_profile","type":"address","internalType":"address"}],"stateMutability":"nonpayable"},{"type":"function","name":"MIN_STAKE","inputs":[],"outputs":[{"name":"","type":"uint256","internalType":"uint256"}],"stateMutability":"view"},{"type":"function","name":"VOTING_PERIOD","inputs":[],"outputs":[{"name":"","type":"uint256","internalType":"uint256"}],"stateMutability":"view"},{"type":"function","name":"execute","inputs":[{"name":"proposalId","type":"uint256","internalType":"uint256"}],"outputs":[],"stateMutability":"nonpayable"},{"type":"function","name":"getProposal","inputs":[{"name":"proposalId","type":"uint256","internalType":"uint256"}],"outputs":[{"name":"","type":"tuple","internalType":"struct MoltSlash.Proposal","components":[{"name":"targetId","type":"uint256","internalType":"uint256"},{"name":"proposer","type":"address","internalType":"address"},{"name":"stakeAmount","type":"uint256","internalType":"uint256"},{"name":"reason","type":"string","internalType":"string"},{"name":"evidence","type":"string","internalType":"string"},{"name":"createdAt","type":"uint256","internalType":"uint256"},{"name":"votesFor","type":"uint256","internalType":"uint256"},{"name":"votesAgainst","type":"uint256","internalType":"uint256"},{"name":"executed","type":"bool","internalType":"bool"},{"name":"passed","type":"bool","internalType":"bool"}]}],"stateMutability":"view"},{"type":"function","name":"hasVoted","inputs":[{"name":"","type":"uint256","internalType":"uint256"},{"name":"","type":"uint256","internalType":"uint256"}],"outputs":[{"name":"","type":"bool","internalType":"bool"}],"stateMutability":"view"},{"type":"function","name":"profile","inputs":[],"outputs":[{"name":"","type":"address","internalType":"contract IMoltProfile"}],"stateMutability":"view"},{"type":"function","name":"proposalCount","inputs":[],"outputs":[{"name":"","type":"uint256","internalType":"uint256"}],"stateMutability":"view"},{"type":"function","name":"proposals","inputs":[{"name":"","type":"uint256","internalType":"uint256"}],"outputs":[{"name":"targetId","type":"uint256","internalType":"uint256"},{"name":"proposer","type":"address","internalType":"address"},{"name":"stakeAmount","type":"uint256","internalType":"uint256"},{"name":"reason","type":"string","internalType":"string"},{"name":"evidence","type":"string","internalType":"string"},{"name":"createdAt","type":"uint256","internalType":"uint256"},{"name":"votesFor","type":"uint256","internalType":"uint256"},{"name":"votesAgainst","type":"uint256","internalType":"uint256"},{"name":"executed","type":"bool","internalType":"bool"},{"name":"passed","type":"bool","internalType":"bool"}],"stateMutability":"view"},{"type":"function","name":"propose","inputs":[{"name":"proposerId","type":"uint256","internalType":"uint256"},{"name":"targetId","type":"uint256","internalType":"uint256"},{"name":"reason","type":"string","internalType":"string"},{"name":"evidence","type":"string","internalType":"string"}],"outputs":[],"stateMutability":"payable"},{"type":"function","name":"vote","inputs":[{"name":"proposalId","type":"uint256","internalType":"uint256"},{"name":"voterId","type":"uint256","internalType":"uint256"},{"name":"support","type":"bool","internalType":"bool"}],"outputs":[],"stateMutability":"nonpayable"},{"type":"event","name":"ProposalCreated","inputs":[{"name":"proposalId","type":"uint256","indexed":true,"internalType":"uint256"},{"name":"targetId","type":"uint256","indexed":true,"internalType":"uint256"},{"name":"proposer","type":"address","indexed":false,"internalType":"address"}],"anonymous":false},{"type":"event","name":"ProposalExecuted","inputs":[{"name":"proposalId","type":"uint256","indexed":true,"internalType":"uint256"},{"name":"passed","type":"bool","indexed":false,"internalType":"bool"}],"anonymous":false},{"type":"event","name":"Voted","inputs":[{"name":"proposalId","type":"uint256","indexed":true,"internalType":"uint256"},{"name":"voterId","type":"uint256","indexed":true,"internalType":"uint256"},{"name":"support","type":"bool","indexed":false,"internalType":"bool"}],"anonymous":false},{"type":"error","name":"AlreadyExecuted","inputs":[]},{"type":"error","name":"AlreadyVoted","inputs":[]},{"type":"error","name":"InsufficientStake","inputs":[]},{"type":"error","name":"NotRegistered","inputs":[]},{"type":"error","name":"TargetNotRegistered","inputs":[]},{"type":"error","name":"VotingEnded","inputs":[]},{"type":"error","name":"VotingNotEnded","inputs":[]}],"bytecode":{"object":"0x60a060405234801561000f575f5ffd5b50604051611ab7380380611ab7833981810160405281019061003191906100c9565b8073ffffffffffffffffffffffffffffffffffffffff1660808173ffffffffffffffffffffffffffffffffffffffff1681525050506100f4565b5f5ffd5b5f73ffffffffffffffffffffffffffffffffffffffff82169050919050565b5f6100988261006f565b9050919050565b6100a88161008e565b81146100b2575f5ffd5b50565b5f815190506100c38161009f565b92915050565b5f602082840312156100de576100dd61006b565b5b5f6100eb848285016100b5565b91505092915050565b6080516119966101215f395f81816103fa0152818161050d015281816108e20152610b4201526119965ff3fe608060405260043610610090575f3560e01c8063b1610d7e11610058578063b1610d7e14610183578063c7f758a8146101ad578063cb1c2b5c146101e9578063da35c66414610213578063fe0d94c11461023d57610090565b8063013cf08b1461009457806347ee3b95146100d957806364390ff1146100f55780636a18ff7a14610131578063ab60636c14610159575b5f5ffd5b34801561009f575f5ffd5b506100ba60048036038101906100b59190610fdb565b610265565b6040516100d09a999897969594939291906110de565b60405180910390f35b6100f360048036038101906100ee91906111e7565b6103f8565b005b348015610100575f5ffd5b5061011b6004803603810190610116919061128a565b6108a3565b60405161012891906112c8565b60405180910390f35b34801561013c575f5ffd5b506101576004803603810190610152919061130b565b6108cd565b005b348015610164575f5ffd5b5061016d610b40565b60405161017a91906113b6565b60405180910390f35b34801561018e575f5ffd5b50610197610b64565b6040516101a491906113cf565b60405180910390f35b3480156101b8575f5ffd5b506101d360048036038101906101ce9190610fdb565b610b6b565b6040516101e0919061153b565b60405180910390f35b3480156101f4575f5ffd5b506101fd610d71565b60405161020a91906113cf565b60405180910390f35b34801561021e575f5ffd5b50610227610d7c565b60405161023491906113cf565b60405180910390f35b348015610248575f5ffd5b50610263600480360381019061025e9190610fdb565b610d82565b005b5f602052805f5260405f205f91509050805f015490806001015f9054906101000a900473ffffffffffffffffffffffffffffffffffffffff16908060020154908060030180546102b490611588565b80601f01602080910402602001604051908101604052809291908181526020018280546102e090611588565b801561032b5780601f106103025761010080835404028352916020019161032b565b820191905f5260205f20905b81548152906001019060200180831161030e57829003601f168201915b50505050509080600401805461034090611588565b80601f016020809104026020016040519081016040528092919081815260200182805461036c90611588565b80156103b75780601f1061038e576101008083540402835291602001916103b7565b820191905f5260205f20905b81548152906001019060200180831161039a57829003601f168201915b505050505090806005015490806006015490806007015490806008015f9054906101000a900460ff16908060080160019054906101000a900460ff1690508a565b7f000000000000000000000000000000000000000000000000000000000000000073ffffffffffffffffffffffffffffffffffffffff1663c41a360a876040518263ffffffff1660e01b815260040161045191906113cf565b602060405180830381865afa15801561046c573d5f5f3e3d5ffd5b505050506040513d601f19601f8201168201806040525081019061049091906115e2565b73ffffffffffffffffffffffffffffffffffffffff163373ffffffffffffffffffffffffffffffffffffffff16146104f4576040517faba4733900000000000000000000000000000000000000000000000000000000815260040160405180910390fd5b5f73ffffffffffffffffffffffffffffffffffffffff167f000000000000000000000000000000000000000000000000000000000000000073ffffffffffffffffffffffffffffffffffffffff1663c41a360a876040518263ffffffff1660e01b815260040161056491906113cf565b602060405180830381865afa15801561057f573d5f5f3e3d5ffd5b505050506040513d601f19601f820116820180604052508101906105a391906115e2565b73ffffffffffffffffffffffffffffffffffffffff16036105f0576040517fd27b87e200000000000000000000000000000000000000000000000000000000815260040160405180910390fd5b66b1a2bc2ec50000341015610631576040517ff1bc94d200000000000000000000000000000000000000000000000000000000815260040160405180910390fd5b60025f8154809291906106439061163a565b91905055506040518061014001604052808681526020013373ffffffffffffffffffffffffffffffffffffffff16815260200134815260200185858080601f0160208091040260200160405190810160405280939291908181526020018383808284375f81840152601f19601f82011690508083019250505050505050815260200183838080601f0160208091040260200160405190810160405280939291908181526020018383808284375f81840152601f19601f820116905080830192505050505050508152602001428152602001600181526020015f81526020015f151581526020015f15158152505f5f60025481526020019081526020015f205f820151815f01556020820151816001015f6101000a81548173ffffffffffffffffffffffffffffffffffffffff021916908373ffffffffffffffffffffffffffffffffffffffff1602179055506040820151816002015560608201518160030190816107ae9190611845565b5060808201518160040190816107c49190611845565b5060a0820151816005015560c0820151816006015560e08201518160070155610100820151816008015f6101000a81548160ff0219169083151502179055506101208201518160080160016101000a81548160ff0219169083151502179055509050506001805f60025481526020019081526020015f205f8881526020019081526020015f205f6101000a81548160ff021916908315150217905550846002547f2e8c120bfdd294891f6ac45b1d661997690ad24bb51f51e4d357365f25c19023336040516108939190611914565b60405180910390a3505050505050565b6001602052815f5260405f20602052805f5260405f205f915091509054906101000a900460ff1681565b5f5f5f8581526020019081526020015f2090507f000000000000000000000000000000000000000000000000000000000000000073ffffffffffffffffffffffffffffffffffffffff1663c41a360a846040518263ffffffff1660e01b815260040161093991906113cf565b602060405180830381865afa158015610954573d5f5f3e3d5ffd5b505050506040513d601f19601f8201168201806040525081019061097891906115e2565b73ffffffffffffffffffffffffffffffffffffffff163373ffffffffffffffffffffffffffffffffffffffff16146109dc576040517faba4733900000000000000000000000000000000000000000000000000000000815260040160405180910390fd5b60015f8581526020019081526020015f205f8481526020019081526020015f205f9054906101000a900460ff1615610a40576040517f7c9a1cf900000000000000000000000000000000000000000000000000000000815260040160405180910390fd5b6202a3008160050154610a53919061192d565b421115610a8c576040517f7a19ed0500000000000000000000000000000000000000000000000000000000815260040160405180910390fd5b6001805f8681526020019081526020015f205f8581526020019081526020015f205f6101000a81548160ff0219169083151502179055508115610ae757806006015f815480929190610add9061163a565b9190505550610b01565b806007015f815480929190610afb9061163a565b91905055505b82847f67b60bc862e9c013a238015361df4bb95a4abfe78309ba4a4d7a04d2fe29e43284604051610b3291906112c8565b60405180910390a350505050565b7f000000000000000000000000000000000000000000000000000000000000000081565b6202a30081565b610b73610f3b565b5f5f8381526020019081526020015f20604051806101400160405290815f8201548152602001600182015f9054906101000a900473ffffffffffffffffffffffffffffffffffffffff1673ffffffffffffffffffffffffffffffffffffffff1673ffffffffffffffffffffffffffffffffffffffff16815260200160028201548152602001600382018054610c0790611588565b80601f0160208091040260200160405190810160405280929190818152602001828054610c3390611588565b8015610c7e5780601f10610c5557610100808354040283529160200191610c7e565b820191905f5260205f20905b815481529060010190602001808311610c6157829003601f168201915b50505050508152602001600482018054610c9790611588565b80601f0160208091040260200160405190810160405280929190818152602001828054610cc390611588565b8015610d0e5780601f10610ce557610100808354040283529160200191610d0e565b820191905f5260205f20905b815481529060010190602001808311610cf157829003601f168201915b50505050508152602001600582015481526020016006820154815260200160078201548152602001600882015f9054906101000a900460ff161515151581526020016008820160019054906101000a900460ff1615151515815250509050919050565b66b1a2bc2ec5000081565b60025481565b5f5f5f8381526020019081526020015f209050806008015f9054906101000a900460ff1615610ddd576040517f0dc1019700000000000000000000000000000000000000000000000000000000815260040160405180910390fd5b6202a3008160050154610df0919061192d565b421015610e29576040517f7f8617a200000000000000000000000000000000000000000000000000000000815260040160405180910390fd5b6001816008015f6101000a81548160ff02191690831515021790555080600701548160060154118160080160016101000a81548160ff0219169083151502179055508060080160019054906101000a900460ff1615610eee57806001015f9054906101000a900473ffffffffffffffffffffffffffffffffffffffff1673ffffffffffffffffffffffffffffffffffffffff166108fc826002015490811502906040515f60405180830381858888f19350505050158015610eec573d5f5f3e3d5ffd5b505b817f948f4a9cd986f1118c3fbd459f7a22b23c0693e1ca3ef06a6a8be5aa7d39cc038260080160019054906101000a900460ff16604051610f2f91906112c8565b60405180910390a25050565b6040518061014001604052805f81526020015f73ffffffffffffffffffffffffffffffffffffffff1681526020015f815260200160608152602001606081526020015f81526020015f81526020015f81526020015f151581526020015f151581525090565b5f5ffd5b5f5ffd5b5f819050919050565b610fba81610fa8565b8114610fc4575f5ffd5b50565b5f81359050610fd581610fb1565b92915050565b5f60208284031215610ff057610fef610fa0565b5b5f610ffd84828501610fc7565b91505092915050565b61100f81610fa8565b82525050565b5f73ffffffffffffffffffffffffffffffffffffffff82169050919050565b5f61103e82611015565b9050919050565b61104e81611034565b82525050565b5f81519050919050565b5f82825260208201905092915050565b8281835e5f83830152505050565b5f601f19601f8301169050919050565b5f61109682611054565b6110a0818561105e565b93506110b081856020860161106e565b6110b98161107c565b840191505092915050565b5f8115159050919050565b6110d8816110c4565b82525050565b5f610140820190506110f25f83018d611006565b6110ff602083018c611045565b61110c604083018b611006565b818103606083015261111e818a61108c565b90508181036080830152611132818961108c565b905061114160a0830188611006565b61114e60c0830187611006565b61115b60e0830186611006565b6111696101008301856110cf565b6111776101208301846110cf565b9b9a5050505050505050505050565b5f5ffd5b5f5ffd5b5f5ffd5b5f5f83601f8401126111a7576111a6611186565b5b8235905067ffffffffffffffff8111156111c4576111c361118a565b5b6020830191508360018202830111156111e0576111df61118e565b5b9250929050565b5f5f5f5f5f5f6080878903121561120157611200610fa0565b5b5f61120e89828a01610fc7565b965050602061121f89828a01610fc7565b955050604087013567ffffffffffffffff8111156112405761123f610fa4565b5b61124c89828a01611192565b9450945050606087013567ffffffffffffffff81111561126f5761126e610fa4565b5b61127b89828a01611192565b92509250509295509295509295565b5f5f604083850312156112a05761129f610fa0565b5b5f6112ad85828601610fc7565b92505060206112be85828601610fc7565b9150509250929050565b5f6020820190506112db5f8301846110cf565b92915050565b6112ea816110c4565b81146112f4575f5ffd5b50565b5f81359050611305816112e1565b92915050565b5f5f5f6060848603121561132257611321610fa0565b5b5f61132f86828701610fc7565b935050602061134086828701610fc7565b9250506040611351868287016112f7565b9150509250925092565b5f819050919050565b5f61137e61137961137484611015565b61135b565b611015565b9050919050565b5f61138f82611364565b9050919050565b5f6113a082611385565b9050919050565b6113b081611396565b82525050565b5f6020820190506113c95f8301846113a7565b92915050565b5f6020820190506113e25f830184611006565b92915050565b6113f181610fa8565b82525050565b61140081611034565b82525050565b5f82825260208201905092915050565b5f61142082611054565b61142a8185611406565b935061143a81856020860161106e565b6114438161107c565b840191505092915050565b611457816110c4565b82525050565b5f61014083015f8301516114735f8601826113e8565b50602083015161148660208601826113f7565b50604083015161149960408601826113e8565b50606083015184820360608601526114b18282611416565b915050608083015184820360808601526114cb8282611416565b91505060a08301516114e060a08601826113e8565b5060c08301516114f360c08601826113e8565b5060e083015161150660e08601826113e8565b5061010083015161151b61010086018261144e565b5061012083015161153061012086018261144e565b508091505092915050565b5f6020820190508181035f830152611553818461145d565b905092915050565b7f4e487b71000000000000000000000000000000000000000000000000000000005f52602260045260245ffd5b5f600282049050600182168061159f57607f821691505b6020821081036115b2576115b161155b565b5b50919050565b6115c181611034565b81146115cb575f5ffd5b50565b5f815190506115dc816115b8565b92915050565b5f602082840312156115f7576115f6610fa0565b5b5f611604848285016115ce565b91505092915050565b7f4e487b71000000000000000000000000000000000000000000000000000000005f52601160045260245ffd5b5f61164482610fa8565b91507fffffffffffffffffffffffffffffffffffffffffffffffffffffffffffffffff82036116765761167561160d565b5b600182019050919050565b7f4e487b71000000000000000000000000000000000000000000000000000000005f52604160045260245ffd5b5f819050815f5260205f209050919050565b5f6020601f8301049050919050565b5f82821b905092915050565b5f6008830261170a7fffffffffffffffffffffffffffffffffffffffffffffffffffffffffffffffff826116cf565b61171486836116cf565b95508019841693508086168417925050509392505050565b5f61174661174161173c84610fa8565b61135b565b610fa8565b9050919050565b5f819050919050565b61175f8361172c565b61177361176b8261174d565b8484546116db565b825550505050565b5f5f905090565b61178a61177b565b611795818484611756565b505050565b5b818110156117b8576117ad5f82611782565b60018101905061179b565b5050565b601f8211156117fd576117ce816116ae565b6117d7846116c0565b810160208510156117e6578190505b6117fa6117f2856116c0565b83018261179a565b50505b505050565b5f82821c905092915050565b5f61181d5f1984600802611802565b1980831691505092915050565b5f611835838361180e565b9150826002028217905092915050565b61184e82611054565b67ffffffffffffffff81111561186757611866611681565b5b6118718254611588565b61187c8282856117bc565b5f60209050601f8311600181146118ad575f841561189b578287015190505b6118a5858261182a565b86555061190c565b601f1984166118bb866116ae565b5f5b828110156118e2578489015182556001820191506020850194506020810190506118bd565b868310156118ff57848901516118fb601f89168261180e565b8355505b6001600288020188555050505b505050505050565b5f6020820190506119275f830184611045565b92915050565b5f61193782610fa8565b915061194283610fa8565b925082820190508082111561195a5761195961160d565b5b9291505056fea26469706673582212203dae98c54e7bc1341c53a67c9f7d3a6d1e15d24b8a157c9933debd2f75d23fcb64736f6c634300081c0033","linkReferences":{}},"methodIdentifiers":{"MIN_STAKE()":"cb1c2b5c","VOTING_PERIOD()":"b1610d7e","execute(uint256)":"fe0d94c1","getProposal(uint256)":"c7f758a8","hasVoted(uint256,uint256)":"64390ff1","profile()":"ab60636c","proposalCount()":"da35c664","proposals(uint256)":"013cf08b","propose(uint256,uint256,string,string)":"47ee3b95","vote(uint256,uint256,bool)":"6a18ff7a"},"id":18}