{"abi":[{"type":"constructor","inputs":[{"name":"_profile","type":"address","internalType":"address"}],"stateMutability":"nonpayable"},{"type":"function","name":"MIN_STAKE","inputs":[],"outputs":[{"name":"","type":"uint256","internalType":"uint256"}],"stateMutability":"view"},{"type":"function","name":"PASS_THRESHOLD","inputs":[],"outputs":[{"name":"","type":"uint256","internalType":"uint256"}],"stateMutability":"view"},{"type":"function","name":"VOTE_DURATION","inputs":[],"outputs":[{"name":"","type":"uint256","internalType":"uint256"}],"stateMutability":"view"},{"type":"function","name":"execute","inputs":[{"name":"proposalId","type":"uint256","internalType":"uint256"}],"outputs":[],"stateMutability":"nonpayable"},{"type":"function","name":"getProposal","inputs":[{"name":"proposalId","type":"uint256","internalType":"uint256"}],"outputs":[{"name":"","type":"tuple","internalType":"struct MoltSlash.Proposal","components":[{"name":"proposerId","type":"uint256","internalType":"uint256"},{"name":"targetId","type":"uint256","internalType":"uint256"},{"name":"reason","type":"string","internalType":"string"},{"name":"evidence","type":"string","internalType":"string"},{"name":"stake","type":"uint256","internalType":"uint256"},{"name":"createdAt","type":"uint256","internalType":"uint256"},{"name":"votesFor","type":"uint256","internalType":"uint256"},{"name":"votesAgainst","type":"uint256","internalType":"uint256"},{"name":"executed","type":"bool","internalType":"bool"},{"name":"passed","type":"bool","internalType":"bool"}]}],"stateMutability":"view"},{"type":"function","name":"hasVoted","inputs":[{"name":"","type":"uint256","internalType":"uint256"},{"name":"","type":"uint256","internalType":"uint256"}],"outputs":[{"name":"","type":"bool","internalType":"bool"}],"stateMutability":"view"},{"type":"function","name":"isVotingActive","inputs":[{"name":"proposalId","type":"uint256","internalType":"uint256"}],"outputs":[{"name":"","type":"bool","internalType":"bool"}],"stateMutability":"view"},{"type":"function","name":"profile","inputs":[],"outputs":[{"name":"","type":"address","internalType":"contract IMoltProfile"}],"stateMutability":"view"},{"type":"function","name":"proposals","inputs":[{"name":"","type":"uint256","internalType":"uint256"}],"outputs":[{"name":"proposerId","type":"uint256","internalType":"uint256"},{"name":"targetId","type":"uint256","internalType":"uint256"},{"name":"reason","type":"string","internalType":"string"},{"name":"evidence","type":"string","internalType":"string"},{"name":"stake","type":"uint256","internalType":"uint256"},{"name":"createdAt","type":"uint256","internalType":"uint256"},{"name":"votesFor","type":"uint256","internalType":"uint256"},{"name":"votesAgainst","type":"uint256","internalType":"uint256"},{"name":"executed","type":"bool","internalType":"bool"},{"name":"passed","type":"bool","internalType":"bool"}],"stateMutability":"view"},{"type":"function","name":"propose","inputs":[{"name":"proposerId","type":"uint256","internalType":"uint256"},{"name":"targetId","type":"uint256","internalType":"uint256"},{"name":"reason","type":"string","internalType":"string"},{"name":"evidence","type":"string","internalType":"string"}],"outputs":[{"name":"","type":"uint256","internalType":"uint256"}],"stateMutability":"payable"},{"type":"function","name":"setVouchContract","inputs":[{"name":"_vouch","type":"address","internalType":"address"}],"outputs":[],"stateMutability":"nonpayable"},{"type":"function","name":"totalProposals","inputs":[],"outputs":[{"name":"","type":"uint256","internalType":"uint256"}],"stateMutability":"view"},{"type":"function","name":"vote","inputs":[{"name":"proposalId","type":"uint256","internalType":"uint256"},{"name":"voterId","type":"uint256","internalType":"uint256"},{"name":"support","type":"bool","internalType":"bool"}],"outputs":[],"stateMutability":"nonpayable"},{"type":"function","name":"vouchContract","inputs":[],"outputs":[{"name":"","type":"address","internalType":"contract IMoltVouch"}],"stateMutability":"view"},{"type":"event","name":"ProposalCreated","inputs":[{"name":"proposalId","type":"uint256","indexed":true,"internalType":"uint256"},{"name":"targetId","type":"uint256","indexed":true,"internalType":"uint256"},{"name":"reason","type":"string","indexed":false,"internalType":"string"}],"anonymous":false},{"type":"event","name":"ProposalExecuted","inputs":[{"name":"proposalId","type":"uint256","indexed":true,"internalType":"uint256"},{"name":"passed","type":"bool","indexed":false,"internalType":"bool"}],"anonymous":false},{"type":"event","name":"Voted","inputs":[{"name":"proposalId","type":"uint256","indexed":true,"internalType":"uint256"},{"name":"voterId","type":"uint256","indexed":true,"internalType":"uint256"},{"name":"support","type":"bool","indexed":false,"internalType":"bool"}],"anonymous":false},{"type":"error","name":"AlreadyExecuted","inputs":[]},{"type":"error","name":"AlreadyVoted","inputs":[]},{"type":"error","name":"CannotSlashSelf","inputs":[]},{"type":"error","name":"InsufficientStake","inputs":[]},{"type":"error","name":"NotRegistered","inputs":[]},{"type":"error","name":"TargetNotRegistered","inputs":[]},{"type":"error","name":"VotingEnded","inputs":[]},{"type":"error","name":"VotingNotEnded","inputs":[]}],"bytecode":{"object":"0x60a060405234801561000f575f5ffd5b50604051612090380380612090833981810160405281019061003191906100c9565b8073ffffffffffffffffffffffffffffffffffffffff1660808173ffffffffffffffffffffffffffffffffffffffff1681525050506100f4565b5f5ffd5b5f73ffffffffffffffffffffffffffffffffffffffff82169050919050565b5f6100988261006f565b9050919050565b6100a88161008e565b81146100b2575f5ffd5b50565b5f815190506100c38161009f565b92915050565b5f602082840312156100de576100dd61006b565b5b5f6100eb848285016100b5565b91505092915050565b608051611f686101285f395f818161051801528181610614015281816109dd01528181610d4a01526111e60152611f685ff3fe6080604052600436106100dc575f3560e01c8063772744b51161007e578063ab60636c11610058578063ab60636c146102c5578063c7f758a8146102ef578063cb1c2b5c1461032b578063fe0d94c114610355576100dc565b8063772744b514610237578063a08c00bf14610273578063a78d80fc1461029b576100dc565b806347ee3b95116100ba57806347ee3b95146101795780634a6b51d1146101a957806364390ff1146101d35780636a18ff7a1461020f576100dc565b8063013cf08b146100e057806333f78d59146101255780634654ff051461014f575b5f5ffd5b3480156100eb575f5ffd5b50610106600480360381019061010191906113a4565b61037d565b60405161011c9a99989796959493929190611468565b60405180910390f35b348015610130575f5ffd5b506101396104f2565b6040516101469190611510565b60405180910390f35b34801561015a575f5ffd5b506101636104f7565b6040516101709190611510565b60405180910390f35b610193600480360381019061018e919061158a565b6104fe565b6040516101a09190611510565b60405180910390f35b3480156101b4575f5ffd5b506101bd610962565b6040516101ca91906116a7565b60405180910390f35b3480156101de575f5ffd5b506101f960048036038101906101f491906116c0565b610986565b60405161020691906116fe565b60405180910390f35b34801561021a575f5ffd5b5061023560048036038101906102309190611741565b6109b0565b005b348015610242575f5ffd5b5061025d600480360381019061025891906113a4565b610c25565b60405161026a91906116fe565b60405180910390f35b34801561027e575f5ffd5b50610299600480360381019061029491906117cc565b610c72565b005b3480156102a6575f5ffd5b506102af610d42565b6040516102bc9190611510565b60405180910390f35b3480156102d0575f5ffd5b506102d9610d48565b6040516102e69190611817565b60405180910390f35b3480156102fa575f5ffd5b50610315600480360381019061031091906113a4565b610d6c565b6040516103229190611974565b60405180910390f35b348015610336575f5ffd5b5061033f610f28565b60405161034c9190611510565b60405180910390f35b348015610360575f5ffd5b5061037b600480360381019061037691906113a4565b610f33565b005b6001602052805f5260405f205f91509050805f0154908060010154908060020180546103a8906119c1565b80601f01602080910402602001604051908101604052809291908181526020018280546103d4906119c1565b801561041f5780601f106103f65761010080835404028352916020019161041f565b820191905f5260205f20905b81548152906001019060200180831161040257829003601f168201915b505050505090806003018054610434906119c1565b80601f0160208091040260200160405190810160405280929190818152602001828054610460906119c1565b80156104ab5780601f10610482576101008083540402835291602001916104ab565b820191905f5260205f20905b81548152906001019060200180831161048e57829003601f168201915b505050505090806004015490806005015490806006015490806007015490806008015f9054906101000a900460ff16908060080160019054906101000a900460ff1690508a565b603381565b6202a30081565b5f3373ffffffffffffffffffffffffffffffffffffffff167f000000000000000000000000000000000000000000000000000000000000000073ffffffffffffffffffffffffffffffffffffffff1663c41a360a896040518263ffffffff1660e01b815260040161056f9190611510565b602060405180830381865afa15801561058a573d5f5f3e3d5ffd5b505050506040513d601f19601f820116820180604052508101906105ae9190611a05565b73ffffffffffffffffffffffffffffffffffffffff16146105fb576040517faba4733900000000000000000000000000000000000000000000000000000000815260040160405180910390fd5b5f73ffffffffffffffffffffffffffffffffffffffff167f000000000000000000000000000000000000000000000000000000000000000073ffffffffffffffffffffffffffffffffffffffff1663c41a360a886040518263ffffffff1660e01b815260040161066b9190611510565b602060405180830381865afa158015610686573d5f5f3e3d5ffd5b505050506040513d601f19601f820116820180604052508101906106aa9190611a05565b73ffffffffffffffffffffffffffffffffffffffff16036106f7576040517fd27b87e200000000000000000000000000000000000000000000000000000000815260040160405180910390fd5b858703610730576040517f7ac4f9fc00000000000000000000000000000000000000000000000000000000815260040160405180910390fd5b66b1a2bc2ec50000341015610771576040517ff1bc94d200000000000000000000000000000000000000000000000000000000815260040160405180910390fd5b60035f81548092919061078390611a5d565b91905055505f600354905060405180610140016040528089815260200188815260200187878080601f0160208091040260200160405190810160405280939291908181526020018383808284375f81840152601f19601f82011690508083019250505050505050815260200185858080601f0160208091040260200160405190810160405280939291908181526020018383808284375f81840152601f19601f8201169050808301925050505050505081526020013481526020014281526020015f81526020015f81526020015f151581526020015f151581525060015f8381526020019081526020015f205f820151815f01556020820151816001015560408201518160020190816108969190611c68565b5060608201518160030190816108ac9190611c68565b506080820151816004015560a0820151816005015560c0820151816006015560e08201518160070155610100820151816008015f6101000a81548160ff0219169083151502179055506101208201518160080160016101000a81548160ff02191690831515021790555090505086817f7aade497c2cd4241d757f694370d0e4a250bfa251b3ab287406b2ab58d3fdad6888860405161094c929190611d71565b60405180910390a3809150509695505050505050565b5f5f9054906101000a900473ffffffffffffffffffffffffffffffffffffffff1681565b6002602052815f5260405f20602052805f5260405f205f915091509054906101000a900460ff1681565b5f60015f8581526020019081526020015f2090503373ffffffffffffffffffffffffffffffffffffffff167f000000000000000000000000000000000000000000000000000000000000000073ffffffffffffffffffffffffffffffffffffffff1663c41a360a856040518263ffffffff1660e01b8152600401610a349190611510565b602060405180830381865afa158015610a4f573d5f5f3e3d5ffd5b505050506040513d601f19601f82011682018060405250810190610a739190611a05565b73ffffffffffffffffffffffffffffffffffffffff1614610ac0576040517faba4733900000000000000000000000000000000000000000000000000000000815260040160405180910390fd5b6202a3008160050154610ad39190611d93565b421115610b0c576040517f7a19ed0500000000000000000000000000000000000000000000000000000000815260040160405180910390fd5b60025f8581526020019081526020015f205f8481526020019081526020015f205f9054906101000a900460ff1615610b70576040517f7c9a1cf900000000000000000000000000000000000000000000000000000000815260040160405180910390fd5b600160025f8681526020019081526020015f205f8581526020019081526020015f205f6101000a81548160ff0219169083151502179055508115610bcc57806006015f815480929190610bc290611a5d565b9190505550610be6565b806007015f815480929190610be090611a5d565b91905055505b82847f67b60bc862e9c013a238015361df4bb95a4abfe78309ba4a4d7a04d2fe29e43284604051610c1791906116fe565b60405180910390a350505050565b5f5f60015f8481526020019081526020015f209050806008015f9054906101000a900460ff16158015610c6a57506202a3008160050154610c669190611d93565b4211155b915050919050565b5f73ffffffffffffffffffffffffffffffffffffffff165f5f9054906101000a900473ffffffffffffffffffffffffffffffffffffffff1673ffffffffffffffffffffffffffffffffffffffff1614610d00576040517f08c379a0000000000000000000000000000000000000000000000000000000008152600401610cf790611e10565b60405180910390fd5b805f5f6101000a81548173ffffffffffffffffffffffffffffffffffffffff021916908373ffffffffffffffffffffffffffffffffffffffff16021790555050565b60035481565b7f000000000000000000000000000000000000000000000000000000000000000081565b610d7461131a565b60015f8381526020019081526020015f20604051806101400160405290815f820154815260200160018201548152602001600282018054610db4906119c1565b80601f0160208091040260200160405190810160405280929190818152602001828054610de0906119c1565b8015610e2b5780601f10610e0257610100808354040283529160200191610e2b565b820191905f5260205f20905b815481529060010190602001808311610e0e57829003601f168201915b50505050508152602001600382018054610e44906119c1565b80601f0160208091040260200160405190810160405280929190818152602001828054610e70906119c1565b8015610ebb5780601f10610e9257610100808354040283529160200191610ebb565b820191905f5260205f20905b815481529060010190602001808311610e9e57829003601f168201915b5050505050815260200160048201548152602001600582015481526020016006820154815260200160078201548152602001600882015f9054906101000a900460ff161515151581526020016008820160019054906101000a900460ff1615151515815250509050919050565b66b1a2bc2ec5000081565b5f60015f8381526020019081526020015f209050806008015f9054906101000a900460ff1615610f8f576040517f0dc1019700000000000000000000000000000000000000000000000000000000815260040160405180910390fd5b6202a3008160050154610fa29190611d93565b421015610fdb576040517f7f8617a200000000000000000000000000000000000000000000000000000000815260040160405180910390fd5b6001816008015f6101000a81548160ff0219169083151502179055505f8160070154826006015461100c9190611d93565b90505f8111801561103957506033816064846006015461102c9190611e2e565b6110369190611e9c565b10155b156112cb5760018260080160016101000a81548160ff0219169083151502179055505f73ffffffffffffffffffffffffffffffffffffffff165f5f9054906101000a900473ffffffffffffffffffffffffffffffffffffffff1673ffffffffffffffffffffffffffffffffffffffff16146111e4575f5f5f9054906101000a900473ffffffffffffffffffffffffffffffffffffffff1673ffffffffffffffffffffffffffffffffffffffff1663f5fa90bd84600101546040518263ffffffff1660e01b815260040161110c9190611510565b602060405180830381865afa158015611127573d5f5f3e3d5ffd5b505050506040513d601f19601f8201168201806040525081019061114b9190611ee0565b90505f8111156111e2575f5f9054906101000a900473ffffffffffffffffffffffffffffffffffffffff1673ffffffffffffffffffffffffffffffffffffffff1663a22a64288460010154836040518363ffffffff1660e01b81526004016111b4929190611f0b565b5f604051808303815f87803b1580156111cb575f5ffd5b505af11580156111dd573d5f5f3e3d5ffd5b505050505b505b7f000000000000000000000000000000000000000000000000000000000000000073ffffffffffffffffffffffffffffffffffffffff1663c41a360a835f01546040518263ffffffff1660e01b81526004016112409190611510565b602060405180830381865afa15801561125b573d5f5f3e3d5ffd5b505050506040513d601f19601f8201168201806040525081019061127f9190611a05565b73ffffffffffffffffffffffffffffffffffffffff166108fc836004015490811502906040515f60405180830381858888f193505050501580156112c5573d5f5f3e3d5ffd5b506112cc565b5b827f948f4a9cd986f1118c3fbd459f7a22b23c0693e1ca3ef06a6a8be5aa7d39cc038360080160019054906101000a900460ff1660405161130d91906116fe565b60405180910390a2505050565b6040518061014001604052805f81526020015f815260200160608152602001606081526020015f81526020015f81526020015f81526020015f81526020015f151581526020015f151581525090565b5f5ffd5b5f5ffd5b5f819050919050565b61138381611371565b811461138d575f5ffd5b50565b5f8135905061139e8161137a565b92915050565b5f602082840312156113b9576113b8611369565b5b5f6113c684828501611390565b91505092915050565b6113d881611371565b82525050565b5f81519050919050565b5f82825260208201905092915050565b8281835e5f83830152505050565b5f601f19601f8301169050919050565b5f611420826113de565b61142a81856113e8565b935061143a8185602086016113f8565b61144381611406565b840191505092915050565b5f8115159050919050565b6114628161144e565b82525050565b5f6101408201905061147c5f83018d6113cf565b611489602083018c6113cf565b818103604083015261149b818b611416565b905081810360608301526114af818a611416565b90506114be60808301896113cf565b6114cb60a08301886113cf565b6114d860c08301876113cf565b6114e560e08301866113cf565b6114f3610100830185611459565b611501610120830184611459565b9b9a5050505050505050505050565b5f6020820190506115235f8301846113cf565b92915050565b5f5ffd5b5f5ffd5b5f5ffd5b5f5f83601f84011261154a57611549611529565b5b8235905067ffffffffffffffff8111156115675761156661152d565b5b60208301915083600182028301111561158357611582611531565b5b9250929050565b5f5f5f5f5f5f608087890312156115a4576115a3611369565b5b5f6115b189828a01611390565b96505060206115c289828a01611390565b955050604087013567ffffffffffffffff8111156115e3576115e261136d565b5b6115ef89828a01611535565b9450945050606087013567ffffffffffffffff8111156116125761161161136d565b5b61161e89828a01611535565b92509250509295509295509295565b5f73ffffffffffffffffffffffffffffffffffffffff82169050919050565b5f819050919050565b5f61166f61166a6116658461162d565b61164c565b61162d565b9050919050565b5f61168082611655565b9050919050565b5f61169182611676565b9050919050565b6116a181611687565b82525050565b5f6020820190506116ba5f830184611698565b92915050565b5f5f604083850312156116d6576116d5611369565b5b5f6116e385828601611390565b92505060206116f485828601611390565b9150509250929050565b5f6020820190506117115f830184611459565b92915050565b6117208161144e565b811461172a575f5ffd5b50565b5f8135905061173b81611717565b92915050565b5f5f5f6060848603121561175857611757611369565b5b5f61176586828701611390565b935050602061177686828701611390565b92505060406117878682870161172d565b9150509250925092565b5f61179b8261162d565b9050919050565b6117ab81611791565b81146117b5575f5ffd5b50565b5f813590506117c6816117a2565b92915050565b5f602082840312156117e1576117e0611369565b5b5f6117ee848285016117b8565b91505092915050565b5f61180182611676565b9050919050565b611811816117f7565b82525050565b5f60208201905061182a5f830184611808565b92915050565b61183981611371565b82525050565b5f82825260208201905092915050565b5f611859826113de565b611863818561183f565b93506118738185602086016113f8565b61187c81611406565b840191505092915050565b6118908161144e565b82525050565b5f61014083015f8301516118ac5f860182611830565b5060208301516118bf6020860182611830565b50604083015184820360408601526118d7828261184f565b915050606083015184820360608601526118f1828261184f565b91505060808301516119066080860182611830565b5060a083015161191960a0860182611830565b5060c083015161192c60c0860182611830565b5060e083015161193f60e0860182611830565b50610100830151611954610100860182611887565b50610120830151611969610120860182611887565b508091505092915050565b5f6020820190508181035f83015261198c8184611896565b905092915050565b7f4e487b71000000000000000000000000000000000000000000000000000000005f52602260045260245ffd5b5f60028204905060018216806119d857607f821691505b6020821081036119eb576119ea611994565b5b50919050565b5f815190506119ff816117a2565b92915050565b5f60208284031215611a1a57611a19611369565b5b5f611a27848285016119f1565b91505092915050565b7f4e487b71000000000000000000000000000000000000000000000000000000005f52601160045260245ffd5b5f611a6782611371565b91507fffffffffffffffffffffffffffffffffffffffffffffffffffffffffffffffff8203611a9957611a98611a30565b5b600182019050919050565b7f4e487b71000000000000000000000000000000000000000000000000000000005f52604160045260245ffd5b5f819050815f5260205f209050919050565b5f6020601f8301049050919050565b5f82821b905092915050565b5f60088302611b2d7fffffffffffffffffffffffffffffffffffffffffffffffffffffffffffffffff82611af2565b611b378683611af2565b95508019841693508086168417925050509392505050565b5f611b69611b64611b5f84611371565b61164c565b611371565b9050919050565b5f819050919050565b611b8283611b4f565b611b96611b8e82611b70565b848454611afe565b825550505050565b5f5f905090565b611bad611b9e565b611bb8818484611b79565b505050565b5b81811015611bdb57611bd05f82611ba5565b600181019050611bbe565b5050565b601f821115611c2057611bf181611ad1565b611bfa84611ae3565b81016020851015611c09578190505b611c1d611c1585611ae3565b830182611bbd565b50505b505050565b5f82821c905092915050565b5f611c405f1984600802611c25565b1980831691505092915050565b5f611c588383611c31565b9150826002028217905092915050565b611c71826113de565b67ffffffffffffffff811115611c8a57611c89611aa4565b5b611c9482546119c1565b611c9f828285611bdf565b5f60209050601f831160018114611cd0575f8415611cbe578287015190505b611cc88582611c4d565b865550611d2f565b601f198416611cde86611ad1565b5f5b82811015611d0557848901518255600182019150602085019450602081019050611ce0565b86831015611d225784890151611d1e601f891682611c31565b8355505b6001600288020188555050505b505050505050565b828183375f83830152505050565b5f611d5083856113e8565b9350611d5d838584611d37565b611d6683611406565b840190509392505050565b5f6020820190508181035f830152611d8a818486611d45565b90509392505050565b5f611d9d82611371565b9150611da883611371565b9250828201905080821115611dc057611dbf611a30565b5b92915050565b7f416c7265616479207365740000000000000000000000000000000000000000005f82015250565b5f611dfa600b836113e8565b9150611e0582611dc6565b602082019050919050565b5f6020820190508181035f830152611e2781611dee565b9050919050565b5f611e3882611371565b9150611e4383611371565b9250828202611e5181611371565b91508282048414831517611e6857611e67611a30565b5b5092915050565b7f4e487b71000000000000000000000000000000000000000000000000000000005f52601260045260245ffd5b5f611ea682611371565b9150611eb183611371565b925082611ec157611ec0611e6f565b5b828204905092915050565b5f81519050611eda8161137a565b92915050565b5f60208284031215611ef557611ef4611369565b5b5f611f0284828501611ecc565b91505092915050565b5f604082019050611f1e5f8301856113cf565b611f2b60208301846113cf565b939250505056fea26469706673582212202a346c94f20198453f281ef063f4193a1087d660b717e28d1f8ec643f176a82e64736f6c634300081c0033","linkReferences":{}},"methodIdentifiers":{"MIN_STAKE()":"cb1c2b5c","PASS_THRESHOLD()":"33f78d59","VOTE_DURATION()":"4654ff05","execute(uint256)":"fe0d94c1","getProposal(uint256)":"c7f758a8","hasVoted(uint256,uint256)":"64390ff1","isVotingActive(uint256)":"772744b5","profile()":"ab60636c","proposals(uint256)":"013cf08b","propose(uint256,uint256,string,string)":"47ee3b95","setVouchContract(address)":"a08c00bf","totalProposals()":"a78d80fc","vote(uint256,uint256,bool)":"6a18ff7a","vouchContract()":"4a6b51d1"},"id":19}