{"abi":[{"type":"function","name":"agents","inputs":[{"name":"","type":"uint256","internalType":"uint256"}],"outputs":[{"name":"apiKeyHash","type":"bytes32","internalType":"bytes32"},{"name":"name","type":"string","internalType":"string"},{"name":"owner","type":"address","internalType":"address"},{"name":"registeredAt","type":"uint256","internalType":"uint256"}],"stateMutability":"view"},{"type":"function","name":"getAgentId","inputs":[{"name":"apiKeyHash","type":"bytes32","internalType":"bytes32"}],"outputs":[{"name":"","type":"uint256","internalType":"uint256"}],"stateMutability":"view"},{"type":"function","name":"getAgentName","inputs":[{"name":"agentId","type":"uint256","internalType":"uint256"}],"outputs":[{"name":"","type":"string","internalType":"string"}],"stateMutability":"view"},{"type":"function","name":"getAgentsByOwner","inputs":[{"name":"owner","type":"address","internalType":"address"}],"outputs":[{"name":"","type":"uint256[]","internalType":"uint256[]"}],"stateMutability":"view"},{"type":"function","name":"getOwner","inputs":[{"name":"agentId","type":"uint256","internalType":"uint256"}],"outputs":[{"name":"","type":"address","internalType":"address"}],"stateMutability":"view"},{"type":"function","name":"hashToAgentId","inputs":[{"name":"","type":"bytes32","internalType":"bytes32"}],"outputs":[{"name":"","type":"uint256","internalType":"uint256"}],"stateMutability":"view"},{"type":"function","name":"isRegistered","inputs":[{"name":"apiKeyHash","type":"bytes32","internalType":"bytes32"}],"outputs":[{"name":"","type":"bool","internalType":"bool"}],"stateMutability":"view"},{"type":"function","name":"ownerAgents","inputs":[{"name":"","type":"address","internalType":"address"},{"name":"","type":"uint256","internalType":"uint256"}],"outputs":[{"name":"","type":"uint256","internalType":"uint256"}],"stateMutability":"view"},{"type":"function","name":"registerAgent","inputs":[{"name":"apiKeyHash","type":"bytes32","internalType":"bytes32"},{"name":"name","type":"string","internalType":"string"}],"outputs":[{"name":"","type":"uint256","internalType":"uint256"}],"stateMutability":"nonpayable"},{"type":"function","name":"totalAgents","inputs":[],"outputs":[{"name":"","type":"uint256","internalType":"uint256"}],"stateMutability":"view"},{"type":"event","name":"AgentRegistered","inputs":[{"name":"agentId","type":"uint256","indexed":true,"internalType":"uint256"},{"name":"apiKeyHash","type":"bytes32","indexed":true,"internalType":"bytes32"},{"name":"name","type":"string","indexed":false,"internalType":"string"},{"name":"owner","type":"address","indexed":false,"internalType":"address"}],"anonymous":false},{"type":"error","name":"AlreadyRegistered","inputs":[]},{"type":"error","name":"InvalidHash","inputs":[]},{"type":"error","name":"InvalidName","inputs":[]}],"bytecode":{"object":"0x6080604052348015600e575f5ffd5b5061105d8061001c5f395ff3fe608060405234801561000f575f5ffd5b506004361061009c575f3560e01c80639c795951116100645780639c79595114610193578063bc936c52146101c3578063c41a360a146101f3578063c505371214610223578063c83b65b5146102415761009c565b80631578e53b146100a05780631ab6f888146100d057806327258b2214610100578063513856c81461013057806362febe4f14610163575b5f5ffd5b6100ba60048036038101906100b59190610803565b610271565b6040516100c7919061089e565b60405180910390f35b6100ea60048036038101906100e59190610918565b610314565b6040516100f791906109fa565b60405180910390f35b61011a60048036038101906101159190610a4d565b6103a7565b6040516101279190610a92565b60405180910390f35b61014a60048036038101906101459190610803565b6103c4565b60405161015a9493929190610ad8565b60405180910390f35b61017d60048036038101906101789190610b22565b610494565b60405161018a9190610b60565b60405180910390f35b6101ad60048036038101906101a89190610bda565b6104bf565b6040516101ba9190610b60565b60405180910390f35b6101dd60048036038101906101d89190610a4d565b610758565b6040516101ea9190610b60565b60405180910390f35b61020d60048036038101906102089190610803565b610772565b60405161021a9190610c37565b60405180910390f35b61022b6107ad565b6040516102389190610b60565b60405180910390f35b61025b60048036038101906102569190610a4d565b6107b3565b6040516102689190610b60565b60405180910390f35b60605f5f8381526020019081526020015f20600101805461029190610c7d565b80601f01602080910402602001604051908101604052809291908181526020018280546102bd90610c7d565b80156103085780601f106102df57610100808354040283529160200191610308565b820191905f5260205f20905b8154815290600101906020018083116102eb57829003601f168201915b50505050509050919050565b606060025f8373ffffffffffffffffffffffffffffffffffffffff1673ffffffffffffffffffffffffffffffffffffffff1681526020019081526020015f2080548060200260200160405190810160405280929190818152602001828054801561039b57602002820191905f5260205f20905b815481526020019060010190808311610387575b50505050509050919050565b5f5f60015f8481526020019081526020015f205414159050919050565b5f602052805f5260405f205f91509050805f0154908060010180546103e890610c7d565b80601f016020809104026020016040519081016040528092919081815260200182805461041490610c7d565b801561045f5780601f106104365761010080835404028352916020019161045f565b820191905f5260205f20905b81548152906001019060200180831161044257829003601f168201915b505050505090806002015f9054906101000a900473ffffffffffffffffffffffffffffffffffffffff16908060030154905084565b6002602052815f5260405f2081815481106104ad575f80fd5b905f5260205f20015f91509150505481565b5f5f5f1b84036104fb576040517f0af806e000000000000000000000000000000000000000000000000000000000815260040160405180910390fd5b5f8383905003610537576040517f430f13b300000000000000000000000000000000000000000000000000000000815260040160405180910390fd5b5f60015f8681526020019081526020015f205414610581576040517f3a81d6fc00000000000000000000000000000000000000000000000000000000815260040160405180910390fd5b60035f81548092919061059390610cda565b91905055505f6003549050604051806080016040528086815260200185858080601f0160208091040260200160405190810160405280939291908181526020018383808284375f81840152601f19601f8201169050808301925050505050505081526020013373ffffffffffffffffffffffffffffffffffffffff168152602001428152505f5f8381526020019081526020015f205f820151815f015560208201518160010190816106459190610eee565b506040820151816002015f6101000a81548173ffffffffffffffffffffffffffffffffffffffff021916908373ffffffffffffffffffffffffffffffffffffffff160217905550606082015181600301559050508060015f8781526020019081526020015f208190555060025f3373ffffffffffffffffffffffffffffffffffffffff1673ffffffffffffffffffffffffffffffffffffffff1681526020019081526020015f2081908060018154018082558091505060019003905f5260205f20015f909190919091505584817ffd9eb3f19a9a736ff2130c6738aaa406e604fd7122a701abff7252d8639a492486863360405161074593929190610ff7565b60405180910390a3809150509392505050565b5f60015f8381526020019081526020015f20549050919050565b5f5f5f8381526020019081526020015f206002015f9054906101000a900473ffffffffffffffffffffffffffffffffffffffff169050919050565b60035481565b6001602052805f5260405f205f915090505481565b5f5ffd5b5f5ffd5b5f819050919050565b6107e2816107d0565b81146107ec575f5ffd5b50565b5f813590506107fd816107d9565b92915050565b5f60208284031215610818576108176107c8565b5b5f610825848285016107ef565b91505092915050565b5f81519050919050565b5f82825260208201905092915050565b8281835e5f83830152505050565b5f601f19601f8301169050919050565b5f6108708261082e565b61087a8185610838565b935061088a818560208601610848565b61089381610856565b840191505092915050565b5f6020820190508181035f8301526108b68184610866565b905092915050565b5f73ffffffffffffffffffffffffffffffffffffffff82169050919050565b5f6108e7826108be565b9050919050565b6108f7816108dd565b8114610901575f5ffd5b50565b5f81359050610912816108ee565b92915050565b5f6020828403121561092d5761092c6107c8565b5b5f61093a84828501610904565b91505092915050565b5f81519050919050565b5f82825260208201905092915050565b5f819050602082019050919050565b610975816107d0565b82525050565b5f610986838361096c565b60208301905092915050565b5f602082019050919050565b5f6109a882610943565b6109b2818561094d565b93506109bd8361095d565b805f5b838110156109ed5781516109d4888261097b565b97506109df83610992565b9250506001810190506109c0565b5085935050505092915050565b5f6020820190508181035f830152610a12818461099e565b905092915050565b5f819050919050565b610a2c81610a1a565b8114610a36575f5ffd5b50565b5f81359050610a4781610a23565b92915050565b5f60208284031215610a6257610a616107c8565b5b5f610a6f84828501610a39565b91505092915050565b5f8115159050919050565b610a8c81610a78565b82525050565b5f602082019050610aa55f830184610a83565b92915050565b610ab481610a1a565b82525050565b610ac3816108dd565b82525050565b610ad2816107d0565b82525050565b5f608082019050610aeb5f830187610aab565b8181036020830152610afd8186610866565b9050610b0c6040830185610aba565b610b196060830184610ac9565b95945050505050565b5f5f60408385031215610b3857610b376107c8565b5b5f610b4585828601610904565b9250506020610b56858286016107ef565b9150509250929050565b5f602082019050610b735f830184610ac9565b92915050565b5f5ffd5b5f5ffd5b5f5ffd5b5f5f83601f840112610b9a57610b99610b79565b5b8235905067ffffffffffffffff811115610bb757610bb6610b7d565b5b602083019150836001820283011115610bd357610bd2610b81565b5b9250929050565b5f5f5f60408486031215610bf157610bf06107c8565b5b5f610bfe86828701610a39565b935050602084013567ffffffffffffffff811115610c1f57610c1e6107cc565b5b610c2b86828701610b85565b92509250509250925092565b5f602082019050610c4a5f830184610aba565b92915050565b7f4e487b71000000000000000000000000000000000000000000000000000000005f52602260045260245ffd5b5f6002820490506001821680610c9457607f821691505b602082108103610ca757610ca6610c50565b5b50919050565b7f4e487b71000000000000000000000000000000000000000000000000000000005f52601160045260245ffd5b5f610ce4826107d0565b91507fffffffffffffffffffffffffffffffffffffffffffffffffffffffffffffffff8203610d1657610d15610cad565b5b600182019050919050565b7f4e487b71000000000000000000000000000000000000000000000000000000005f52604160045260245ffd5b5f819050815f5260205f209050919050565b5f6020601f8301049050919050565b5f82821b905092915050565b5f60088302610daa7fffffffffffffffffffffffffffffffffffffffffffffffffffffffffffffffff82610d6f565b610db48683610d6f565b95508019841693508086168417925050509392505050565b5f819050919050565b5f610def610dea610de5846107d0565b610dcc565b6107d0565b9050919050565b5f819050919050565b610e0883610dd5565b610e1c610e1482610df6565b848454610d7b565b825550505050565b5f5f905090565b610e33610e24565b610e3e818484610dff565b505050565b5b81811015610e6157610e565f82610e2b565b600181019050610e44565b5050565b601f821115610ea657610e7781610d4e565b610e8084610d60565b81016020851015610e8f578190505b610ea3610e9b85610d60565b830182610e43565b50505b505050565b5f82821c905092915050565b5f610ec65f1984600802610eab565b1980831691505092915050565b5f610ede8383610eb7565b9150826002028217905092915050565b610ef78261082e565b67ffffffffffffffff811115610f1057610f0f610d21565b5b610f1a8254610c7d565b610f25828285610e65565b5f60209050601f831160018114610f56575f8415610f44578287015190505b610f4e8582610ed3565b865550610fb5565b601f198416610f6486610d4e565b5f5b82811015610f8b57848901518255600182019150602085019450602081019050610f66565b86831015610fa85784890151610fa4601f891682610eb7565b8355505b6001600288020188555050505b505050505050565b828183375f83830152505050565b5f610fd68385610838565b9350610fe3838584610fbd565b610fec83610856565b840190509392505050565b5f6040820190508181035f830152611010818587610fcb565b905061101f6020830184610aba565b94935050505056fea2646970667358221220de7f29e33cc934a354e5cfbc113745a74782f7365692e89be6d0982755af5e0e64736f6c634300081c0033","linkReferences":{}},"methodIdentifiers":{"agents(uint256)":"513856c8","getAgentId(bytes32)":"bc936c52","getAgentName(uint256)":"1578e53b","getAgentsByOwner(address)":"1ab6f888","getOwner(uint256)":"c41a360a","hashToAgentId(bytes32)":"c83b65b5","isRegistered(bytes32)":"27258b22","ownerAgents(address,uint256)":"62febe4f","registerAgent(bytes32,string)":"9c795951","totalAgents()":"c5053712"},"id":16}