{"abi":[{"type":"constructor","inputs":[{"name":"_profile","type":"address","internalType":"address"}],"stateMutability":"nonpayable"},{"type":"function","name":"getVouch","inputs":[{"name":"voucherId","type":"uint256","internalType":"uint256"},{"name":"targetId","type":"uint256","internalType":"uint256"}],"outputs":[{"name":"","type":"uint256","internalType":"uint256"}],"stateMutability":"view"},{"type":"function","name":"hasActiveSlash","inputs":[{"name":"","type":"uint256","internalType":"uint256"}],"outputs":[{"name":"","type":"bool","internalType":"bool"}],"stateMutability":"view"},{"type":"function","name":"profile","inputs":[],"outputs":[{"name":"","type":"address","internalType":"contract IMoltProfile"}],"stateMutability":"view"},{"type":"function","name":"setActiveSlash","inputs":[{"name":"targetId","type":"uint256","internalType":"uint256"},{"name":"active","type":"bool","internalType":"bool"}],"outputs":[],"stateMutability":"nonpayable"},{"type":"function","name":"totalVouched","inputs":[{"name":"","type":"uint256","internalType":"uint256"}],"outputs":[{"name":"","type":"uint256","internalType":"uint256"}],"stateMutability":"view"},{"type":"function","name":"vouch","inputs":[{"name":"voucherId","type":"uint256","internalType":"uint256"},{"name":"targetId","type":"uint256","internalType":"uint256"}],"outputs":[],"stateMutability":"payable"},{"type":"function","name":"vouches","inputs":[{"name":"","type":"uint256","internalType":"uint256"},{"name":"","type":"uint256","internalType":"uint256"}],"outputs":[{"name":"","type":"uint256","internalType":"uint256"}],"stateMutability":"view"},{"type":"function","name":"withdraw","inputs":[{"name":"voucherId","type":"uint256","internalType":"uint256"},{"name":"targetId","type":"uint256","internalType":"uint256"}],"outputs":[],"stateMutability":"nonpayable"},{"type":"event","name":"Vouched","inputs":[{"name":"voucherId","type":"uint256","indexed":true,"internalType":"uint256"},{"name":"targetId","type":"uint256","indexed":true,"internalType":"uint256"},{"name":"amount","type":"uint256","indexed":false,"internalType":"uint256"}],"anonymous":false},{"type":"event","name":"Withdrawn","inputs":[{"name":"voucherId","type":"uint256","indexed":true,"internalType":"uint256"},{"name":"targetId","type":"uint256","indexed":true,"internalType":"uint256"},{"name":"amount","type":"uint256","indexed":false,"internalType":"uint256"}],"anonymous":false},{"type":"error","name":"ActiveSlashProposal","inputs":[]},{"type":"error","name":"CannotVouchSelf","inputs":[]},{"type":"error","name":"NoVouchToWithdraw","inputs":[]},{"type":"error","name":"NotRegistered","inputs":[]},{"type":"error","name":"TargetNotRegistered","inputs":[]}],"bytecode":{"object":"0x60a060405234801561000f575f5ffd5b50604051610c58380380610c58833981810160405281019061003191906100c9565b8073ffffffffffffffffffffffffffffffffffffffff1660808173ffffffffffffffffffffffffffffffffffffffff1681525050506100f4565b5f5ffd5b5f73ffffffffffffffffffffffffffffffffffffffff82169050919050565b5f6100988261006f565b9050919050565b6100a88161008e565b81146100b2575f5ffd5b50565b5f815190506100c38161009f565b92915050565b5f602082840312156100de576100dd61006b565b5b5f6100eb848285016100b5565b91505092915050565b608051610b376101215f395f818161024c015281816105110152818161053501526106480152610b375ff3fe60806040526004361061007a575f3560e01c80639f9bf3201161004d5780639f9bf3201461015a578063ab60636c14610182578063d804a65a146101ac578063f5fa90bd146101c85761007a565b80631507df5b1461007e5780631d0023b6146100ba578063441a3e70146100f65780638ba9b38c1461011e575b5f5ffd5b348015610089575f5ffd5b506100a4600480360381019061009f9190610849565b610204565b6040516100b1919061088e565b60405180910390f35b3480156100c5575f5ffd5b506100e060048036038101906100db91906108a7565b610221565b6040516100ed91906108f4565b60405180910390f35b348015610101575f5ffd5b5061011c600480360381019061011791906108a7565b61024a565b005b348015610129575f5ffd5b50610144600480360381019061013f91906108a7565b6104c4565b60405161015191906108f4565b60405180910390f35b348015610165575f5ffd5b50610180600480360381019061017b9190610937565b6104e3565b005b34801561018d575f5ffd5b5061019661050f565b6040516101a391906109ef565b60405180910390f35b6101c660048036038101906101c191906108a7565b610533565b005b3480156101d3575f5ffd5b506101ee60048036038101906101e99190610849565b6107fd565b6040516101fb91906108f4565b60405180910390f35b6002602052805f5260405f205f915054906101000a900460ff1681565b5f5f5f8481526020019081526020015f205f8381526020019081526020015f2054905092915050565b7f000000000000000000000000000000000000000000000000000000000000000073ffffffffffffffffffffffffffffffffffffffff1663c41a360a836040518263ffffffff1660e01b81526004016102a391906108f4565b602060405180830381865afa1580156102be573d5f5f3e3d5ffd5b505050506040513d601f19601f820116820180604052508101906102e29190610a43565b73ffffffffffffffffffffffffffffffffffffffff163373ffffffffffffffffffffffffffffffffffffffff1614610346576040517faba4733900000000000000000000000000000000000000000000000000000000815260040160405180910390fd5b60025f8281526020019081526020015f205f9054906101000a900460ff161561039b576040517f72d4d2e500000000000000000000000000000000000000000000000000000000815260040160405180910390fd5b5f5f5f8481526020019081526020015f205f8381526020019081526020015f205490505f81036103f7576040517fe941fa8800000000000000000000000000000000000000000000000000000000815260040160405180910390fd5b5f5f5f8581526020019081526020015f205f8481526020019081526020015f20819055508060015f8481526020019081526020015f205f82825461043b9190610a9b565b925050819055503373ffffffffffffffffffffffffffffffffffffffff166108fc8290811502906040515f60405180830381858888f19350505050158015610485573d5f5f3e3d5ffd5b5081837fabd2ab552bc04cdbfa4a54107fa44ac8c9cb06f6d21da11933ac05a653be19e9836040516104b791906108f4565b60405180910390a3505050565b5f602052815f5260405f20602052805f5260405f205f91509150505481565b8060025f8481526020019081526020015f205f6101000a81548160ff0219169083151502179055505050565b7f000000000000000000000000000000000000000000000000000000000000000081565b7f000000000000000000000000000000000000000000000000000000000000000073ffffffffffffffffffffffffffffffffffffffff1663c41a360a836040518263ffffffff1660e01b815260040161058c91906108f4565b602060405180830381865afa1580156105a7573d5f5f3e3d5ffd5b505050506040513d601f19601f820116820180604052508101906105cb9190610a43565b73ffffffffffffffffffffffffffffffffffffffff163373ffffffffffffffffffffffffffffffffffffffff161461062f576040517faba4733900000000000000000000000000000000000000000000000000000000815260040160405180910390fd5b5f73ffffffffffffffffffffffffffffffffffffffff167f000000000000000000000000000000000000000000000000000000000000000073ffffffffffffffffffffffffffffffffffffffff1663c41a360a836040518263ffffffff1660e01b815260040161069f91906108f4565b602060405180830381865afa1580156106ba573d5f5f3e3d5ffd5b505050506040513d601f19601f820116820180604052508101906106de9190610a43565b73ffffffffffffffffffffffffffffffffffffffff160361072b576040517fd27b87e200000000000000000000000000000000000000000000000000000000815260040160405180910390fd5b808203610764576040517f4b91080000000000000000000000000000000000000000000000000000000000815260040160405180910390fd5b345f5f8481526020019081526020015f205f8381526020019081526020015f205f8282546107929190610ace565b925050819055503460015f8381526020019081526020015f205f8282546107b99190610ace565b9250508190555080827f90b71affec2bca90866fa6293422253ffcc03a588a7676ec3349d0744410c25c346040516107f191906108f4565b60405180910390a35050565b6001602052805f5260405f205f915090505481565b5f5ffd5b5f819050919050565b61082881610816565b8114610832575f5ffd5b50565b5f813590506108438161081f565b92915050565b5f6020828403121561085e5761085d610812565b5b5f61086b84828501610835565b91505092915050565b5f8115159050919050565b61088881610874565b82525050565b5f6020820190506108a15f83018461087f565b92915050565b5f5f604083850312156108bd576108bc610812565b5b5f6108ca85828601610835565b92505060206108db85828601610835565b9150509250929050565b6108ee81610816565b82525050565b5f6020820190506109075f8301846108e5565b92915050565b61091681610874565b8114610920575f5ffd5b50565b5f813590506109318161090d565b92915050565b5f5f6040838503121561094d5761094c610812565b5b5f61095a85828601610835565b925050602061096b85828601610923565b9150509250929050565b5f73ffffffffffffffffffffffffffffffffffffffff82169050919050565b5f819050919050565b5f6109b76109b26109ad84610975565b610994565b610975565b9050919050565b5f6109c88261099d565b9050919050565b5f6109d9826109be565b9050919050565b6109e9816109cf565b82525050565b5f602082019050610a025f8301846109e0565b92915050565b5f610a1282610975565b9050919050565b610a2281610a08565b8114610a2c575f5ffd5b50565b5f81519050610a3d81610a19565b92915050565b5f60208284031215610a5857610a57610812565b5b5f610a6584828501610a2f565b91505092915050565b7f4e487b71000000000000000000000000000000000000000000000000000000005f52601160045260245ffd5b5f610aa582610816565b9150610ab083610816565b9250828203905081811115610ac857610ac7610a6e565b5b92915050565b5f610ad882610816565b9150610ae383610816565b9250828201905080821115610afb57610afa610a6e565b5b9291505056fea26469706673582212200aec15fdb99e2c1039e749aa39b602fe2774e9473f9e933c38516f042dfedead64736f6c634300081c0033","linkReferences":{}},"methodIdentifiers":{"getVouch(uint256,uint256)":"1d0023b6","hasActiveSlash(uint256)":"1507df5b","profile()":"ab60636c","setActiveSlash(uint256,bool)":"9f9bf320","totalVouched(uint256)":"f5fa90bd","vouch(uint256,uint256)":"d804a65a","vouches(uint256,uint256)":"8ba9b38c","withdraw(uint256,uint256)":"441a3e70"},"id":19}