{"abi":[{"type":"constructor","inputs":[{"name":"_profile","type":"address","internalType":"address"}],"stateMutability":"nonpayable"},{"type":"function","name":"MIN_VOUCH","inputs":[],"outputs":[{"name":"","type":"uint256","internalType":"uint256"}],"stateMutability":"view"},{"type":"function","name":"getActiveVouchCount","inputs":[{"name":"agentId","type":"uint256","internalType":"uint256"}],"outputs":[{"name":"count","type":"uint256","internalType":"uint256"}],"stateMutability":"view"},{"type":"function","name":"getVouches","inputs":[{"name":"agentId","type":"uint256","internalType":"uint256"}],"outputs":[{"name":"","type":"tuple[]","internalType":"struct MoltVouch.Vouch[]","components":[{"name":"voucherId","type":"uint256","internalType":"uint256"},{"name":"amount","type":"uint256","internalType":"uint256"},{"name":"timestamp","type":"uint256","internalType":"uint256"},{"name":"active","type":"bool","internalType":"bool"}]}],"stateMutability":"view"},{"type":"function","name":"profile","inputs":[],"outputs":[{"name":"","type":"address","internalType":"contract IMoltProfile"}],"stateMutability":"view"},{"type":"function","name":"slash","inputs":[{"name":"targetId","type":"uint256","internalType":"uint256"},{"name":"amount","type":"uint256","internalType":"uint256"}],"outputs":[],"stateMutability":"nonpayable"},{"type":"function","name":"totalVouched","inputs":[{"name":"","type":"uint256","internalType":"uint256"}],"outputs":[{"name":"","type":"uint256","internalType":"uint256"}],"stateMutability":"view"},{"type":"function","name":"vouch","inputs":[{"name":"voucherId","type":"uint256","internalType":"uint256"},{"name":"targetId","type":"uint256","internalType":"uint256"}],"outputs":[],"stateMutability":"payable"},{"type":"function","name":"vouchIndex","inputs":[{"name":"","type":"uint256","internalType":"uint256"},{"name":"","type":"uint256","internalType":"uint256"}],"outputs":[{"name":"","type":"uint256","internalType":"uint256"}],"stateMutability":"view"},{"type":"function","name":"vouchesFor","inputs":[{"name":"","type":"uint256","internalType":"uint256"},{"name":"","type":"uint256","internalType":"uint256"}],"outputs":[{"name":"voucherId","type":"uint256","internalType":"uint256"},{"name":"amount","type":"uint256","internalType":"uint256"},{"name":"timestamp","type":"uint256","internalType":"uint256"},{"name":"active","type":"bool","internalType":"bool"}],"stateMutability":"view"},{"type":"function","name":"withdraw","inputs":[{"name":"voucherId","type":"uint256","internalType":"uint256"},{"name":"targetId","type":"uint256","internalType":"uint256"}],"outputs":[],"stateMutability":"nonpayable"},{"type":"event","name":"VouchSlashed","inputs":[{"name":"targetId","type":"uint256","indexed":true,"internalType":"uint256"},{"name":"amount","type":"uint256","indexed":false,"internalType":"uint256"}],"anonymous":false},{"type":"event","name":"VouchWithdrawn","inputs":[{"name":"voucherId","type":"uint256","indexed":true,"internalType":"uint256"},{"name":"targetId","type":"uint256","indexed":true,"internalType":"uint256"},{"name":"amount","type":"uint256","indexed":false,"internalType":"uint256"}],"anonymous":false},{"type":"event","name":"Vouched","inputs":[{"name":"voucherId","type":"uint256","indexed":true,"internalType":"uint256"},{"name":"targetId","type":"uint256","indexed":true,"internalType":"uint256"},{"name":"amount","type":"uint256","indexed":false,"internalType":"uint256"}],"anonymous":false},{"type":"error","name":"AlreadyVouched","inputs":[]},{"type":"error","name":"CannotVouchSelf","inputs":[]},{"type":"error","name":"InsufficientAmount","inputs":[]},{"type":"error","name":"NoActiveVouch","inputs":[]},{"type":"error","name":"NotRegistered","inputs":[]},{"type":"error","name":"TargetNotRegistered","inputs":[]}],"bytecode":{"object":"0x60a060405234801561000f575f5ffd5b506040516111a13803806111a1833981810160405281019061003191906100c9565b8073ffffffffffffffffffffffffffffffffffffffff1660808173ffffffffffffffffffffffffffffffffffffffff1681525050506100f4565b5f5ffd5b5f73ffffffffffffffffffffffffffffffffffffffff82169050919050565b5f6100988261006f565b9050919050565b6100a88161008e565b81146100b2575f5ffd5b50565b5f815190506100c38161009f565b92915050565b5f602082840312156100de576100dd61006b565b5b5f6100eb848285016100b5565b91505092915050565b6080516110806101215f395f81816103180152818161075101528181610798015261089401526110805ff3fe608060405260043610610090575f3560e01c8063a22a642811610058578063a22a6428146101af578063ab60636c146101d7578063aeca69ee14610201578063d804a65a1461022b578063f5fa90bd1461024757610090565b80633ee44a4814610094578063441a3e70146100d05780636f87e1f6146100f8578063811238a814610134578063893ab73314610170575b5f5ffd5b34801561009f575f5ffd5b506100ba60048036038101906100b59190610c23565b610283565b6040516100c79190610c5d565b60405180910390f35b3480156100db575f5ffd5b506100f660048036038101906100f19190610c76565b6102ff565b005b348015610103575f5ffd5b5061011e60048036038101906101199190610c76565b6105aa565b60405161012b9190610c5d565b60405180910390f35b34801561013f575f5ffd5b5061015a60048036038101906101559190610c23565b6105ca565b6040516101679190610dd8565b60405180910390f35b34801561017b575f5ffd5b5061019660048036038101906101919190610c76565b61066d565b6040516101a69493929190610e07565b60405180910390f35b3480156101ba575f5ffd5b506101d560048036038101906101d09190610c76565b6106be565b005b3480156101e2575f5ffd5b506101eb61074f565b6040516101f89190610ec4565b60405180910390f35b34801561020c575f5ffd5b50610215610773565b6040516102229190610c5d565b60405180910390f35b61024560048036038101906102409190610c76565b61077f565b005b348015610252575f5ffd5b5061026d60048036038101906102689190610c23565b610bd7565b60405161027a9190610c5d565b60405180910390f35b5f5f5f5f8481526020019081526020015f2090505f5f90505b81805490508110156102f8578181815481106102bb576102ba610edd565b5b905f5260205f2090600402016003015f9054906101000a900460ff16156102eb5782806102e790610f37565b9350505b808060010191505061029c565b5050919050565b3373ffffffffffffffffffffffffffffffffffffffff167f000000000000000000000000000000000000000000000000000000000000000073ffffffffffffffffffffffffffffffffffffffff1663c41a360a846040518263ffffffff1660e01b815260040161036f9190610c5d565b602060405180830381865afa15801561038a573d5f5f3e3d5ffd5b505050506040513d601f19601f820116820180604052508101906103ae9190610fb9565b73ffffffffffffffffffffffffffffffffffffffff16146103fb576040517faba4733900000000000000000000000000000000000000000000000000000000815260040160405180910390fd5b5f60015f8481526020019081526020015f205f8381526020019081526020015f205490505f8103610458576040517fc707be2400000000000000000000000000000000000000000000000000000000815260040160405180910390fd5b5f5f5f8481526020019081526020015f206001836104769190610fe4565b8154811061048757610486610edd565b5b905f5260205f2090600402019050806003015f9054906101000a900460ff166104dc576040517fc707be2400000000000000000000000000000000000000000000000000000000815260040160405180910390fd5b5f816001015490505f826003015f6101000a81548160ff0219169083151502179055508060025f8681526020019081526020015f205f82825461051f9190610fe4565b925050819055503373ffffffffffffffffffffffffffffffffffffffff166108fc8290811502906040515f60405180830381858888f19350505050158015610569573d5f5f3e3d5ffd5b5083857f5a8baef13c24be32c6fdad177226c875bced4350f212e2ff1aedcdb0fa96c2b18360405161059b9190610c5d565b60405180910390a35050505050565b6001602052815f5260405f20602052805f5260405f205f91509150505481565b60605f5f8381526020019081526020015f20805480602002602001604051908101604052809291908181526020015f905b82821015610662578382905f5260205f2090600402016040518060800160405290815f82015481526020016001820154815260200160028201548152602001600382015f9054906101000a900460ff161515151581525050815260200190600101906105fb565b505050509050919050565b5f602052815f5260405f208181548110610685575f80fd5b905f5260205f2090600402015f9150915050805f015490806001015490806002015490806003015f9054906101000a900460ff16905084565b60025f8381526020019081526020015f20548111156106ec5760025f8381526020019081526020015f205490505b8060025f8481526020019081526020015f205f82825461070c9190610fe4565b92505081905550817f79ef51429cf7d743af59aa45789f7df60c02be4d7b13c4ae2dbcbe625ccf9ba1826040516107439190610c5d565b60405180910390a25050565b7f000000000000000000000000000000000000000000000000000000000000000081565b67016345785d8a000081565b3373ffffffffffffffffffffffffffffffffffffffff167f000000000000000000000000000000000000000000000000000000000000000073ffffffffffffffffffffffffffffffffffffffff1663c41a360a846040518263ffffffff1660e01b81526004016107ef9190610c5d565b602060405180830381865afa15801561080a573d5f5f3e3d5ffd5b505050506040513d601f19601f8201168201806040525081019061082e9190610fb9565b73ffffffffffffffffffffffffffffffffffffffff161461087b576040517faba4733900000000000000000000000000000000000000000000000000000000815260040160405180910390fd5b5f73ffffffffffffffffffffffffffffffffffffffff167f000000000000000000000000000000000000000000000000000000000000000073ffffffffffffffffffffffffffffffffffffffff1663c41a360a836040518263ffffffff1660e01b81526004016108eb9190610c5d565b602060405180830381865afa158015610906573d5f5f3e3d5ffd5b505050506040513d601f19601f8201168201806040525081019061092a9190610fb9565b73ffffffffffffffffffffffffffffffffffffffff1603610977576040517fd27b87e200000000000000000000000000000000000000000000000000000000815260040160405180910390fd5b8082036109b0576040517f4b91080000000000000000000000000000000000000000000000000000000000815260040160405180910390fd5b67016345785d8a00003410156109f2576040517f5945ea5600000000000000000000000000000000000000000000000000000000815260040160405180910390fd5b5f60015f8481526020019081526020015f205f8381526020019081526020015f205490505f8114158015610a6c57505f5f8381526020019081526020015f20600182610a3e9190610fe4565b81548110610a4f57610a4e610edd565b5b905f5260205f2090600402016003015f9054906101000a900460ff165b15610aa3576040517fbde702e300000000000000000000000000000000000000000000000000000000815260040160405180910390fd5b5f5f8381526020019081526020015f20604051806080016040528085815260200134815260200142815260200160011515815250908060018154018082558091505060019003905f5260205f2090600402015f909190919091505f820151815f015560208201518160010155604082015181600201556060820151816003015f6101000a81548160ff02191690831515021790555050505f5f8381526020019081526020015f208054905060015f8581526020019081526020015f205f8481526020019081526020015f20819055503460025f8481526020019081526020015f205f828254610b929190611017565b9250508190555081837f90b71affec2bca90866fa6293422253ffcc03a588a7676ec3349d0744410c25c34604051610bca9190610c5d565b60405180910390a3505050565b6002602052805f5260405f205f915090505481565b5f5ffd5b5f819050919050565b610c0281610bf0565b8114610c0c575f5ffd5b50565b5f81359050610c1d81610bf9565b92915050565b5f60208284031215610c3857610c37610bec565b5b5f610c4584828501610c0f565b91505092915050565b610c5781610bf0565b82525050565b5f602082019050610c705f830184610c4e565b92915050565b5f5f60408385031215610c8c57610c8b610bec565b5b5f610c9985828601610c0f565b9250506020610caa85828601610c0f565b9150509250929050565b5f81519050919050565b5f82825260208201905092915050565b5f819050602082019050919050565b610ce681610bf0565b82525050565b5f8115159050919050565b610d0081610cec565b82525050565b608082015f820151610d1a5f850182610cdd565b506020820151610d2d6020850182610cdd565b506040820151610d406040850182610cdd565b506060820151610d536060850182610cf7565b50505050565b5f610d648383610d06565b60808301905092915050565b5f602082019050919050565b5f610d8682610cb4565b610d908185610cbe565b9350610d9b83610cce565b805f5b83811015610dcb578151610db28882610d59565b9750610dbd83610d70565b925050600181019050610d9e565b5085935050505092915050565b5f6020820190508181035f830152610df08184610d7c565b905092915050565b610e0181610cec565b82525050565b5f608082019050610e1a5f830187610c4e565b610e276020830186610c4e565b610e346040830185610c4e565b610e416060830184610df8565b95945050505050565b5f73ffffffffffffffffffffffffffffffffffffffff82169050919050565b5f819050919050565b5f610e8c610e87610e8284610e4a565b610e69565b610e4a565b9050919050565b5f610e9d82610e72565b9050919050565b5f610eae82610e93565b9050919050565b610ebe81610ea4565b82525050565b5f602082019050610ed75f830184610eb5565b92915050565b7f4e487b71000000000000000000000000000000000000000000000000000000005f52603260045260245ffd5b7f4e487b71000000000000000000000000000000000000000000000000000000005f52601160045260245ffd5b5f610f4182610bf0565b91507fffffffffffffffffffffffffffffffffffffffffffffffffffffffffffffffff8203610f7357610f72610f0a565b5b600182019050919050565b5f610f8882610e4a565b9050919050565b610f9881610f7e565b8114610fa2575f5ffd5b50565b5f81519050610fb381610f8f565b92915050565b5f60208284031215610fce57610fcd610bec565b5b5f610fdb84828501610fa5565b91505092915050565b5f610fee82610bf0565b9150610ff983610bf0565b925082820390508181111561101157611010610f0a565b5b92915050565b5f61102182610bf0565b915061102c83610bf0565b925082820190508082111561104457611043610f0a565b5b9291505056fea26469706673582212201828e4cfcf6394210245fba9951b135fbdc49fe48f887adba4b075b1588af4e964736f6c634300081c0033","linkReferences":{}},"methodIdentifiers":{"MIN_VOUCH()":"aeca69ee","getActiveVouchCount(uint256)":"3ee44a48","getVouches(uint256)":"811238a8","profile()":"ab60636c","slash(uint256,uint256)":"a22a6428","totalVouched(uint256)":"f5fa90bd","vouch(uint256,uint256)":"d804a65a","vouchIndex(uint256,uint256)":"6f87e1f6","vouchesFor(uint256,uint256)":"893ab733","withdraw(uint256,uint256)":"441a3e70"},"id":20}