{"abi":[{"type":"constructor","inputs":[{"name":"_profile","type":"address","internalType":"address"}],"stateMutability":"nonpayable"},{"type":"function","name":"BASE_SCORE","inputs":[],"outputs":[{"name":"","type":"uint256","internalType":"uint256"}],"stateMutability":"view"},{"type":"function","name":"MAX_REVIEW_IMPACT","inputs":[],"outputs":[{"name":"","type":"uint256","internalType":"uint256"}],"stateMutability":"view"},{"type":"function","name":"MAX_SCORE","inputs":[],"outputs":[{"name":"","type":"uint256","internalType":"uint256"}],"stateMutability":"view"},{"type":"function","name":"MAX_SLASH_IMPACT","inputs":[],"outputs":[{"name":"","type":"uint256","internalType":"uint256"}],"stateMutability":"view"},{"type":"function","name":"MAX_VOUCH_IMPACT","inputs":[],"outputs":[{"name":"","type":"uint256","internalType":"uint256"}],"stateMutability":"view"},{"type":"function","name":"calculateScore","inputs":[{"name":"agentId","type":"uint256","internalType":"uint256"}],"outputs":[{"name":"","type":"uint256","internalType":"uint256"}],"stateMutability":"view"},{"type":"function","name":"getScoreEmoji","inputs":[{"name":"score","type":"uint256","internalType":"uint256"}],"outputs":[{"name":"","type":"string","internalType":"string"}],"stateMutability":"pure"},{"type":"function","name":"getScoreLevel","inputs":[{"name":"score","type":"uint256","internalType":"uint256"}],"outputs":[{"name":"","type":"string","internalType":"string"}],"stateMutability":"pure"},{"type":"function","name":"profile","inputs":[],"outputs":[{"name":"","type":"address","internalType":"contract IMoltProfile"}],"stateMutability":"view"},{"type":"function","name":"reviewContract","inputs":[],"outputs":[{"name":"","type":"address","internalType":"contract IMoltReview"}],"stateMutability":"view"},{"type":"function","name":"setContracts","inputs":[{"name":"_review","type":"address","internalType":"address"},{"name":"_vouch","type":"address","internalType":"address"},{"name":"_slash","type":"address","internalType":"address"}],"outputs":[],"stateMutability":"nonpayable"},{"type":"function","name":"slashContract","inputs":[],"outputs":[{"name":"","type":"address","internalType":"contract IMoltSlashScore"}],"stateMutability":"view"},{"type":"function","name":"vouchContract","inputs":[],"outputs":[{"name":"","type":"address","internalType":"contract IMoltVouchScore"}],"stateMutability":"view"}],"bytecode":{"object":"0x60a060405234801561000f575f5ffd5b50604051611477380380611477833981810160405281019061003191906100c9565b8073ffffffffffffffffffffffffffffffffffffffff1660808173ffffffffffffffffffffffffffffffffffffffff1681525050506100f4565b5f5ffd5b5f73ffffffffffffffffffffffffffffffffffffffff82169050919050565b5f6100988261006f565b9050919050565b6100a88161008e565b81146100b2575f5ffd5b50565b5f815190506100c38161009f565b92915050565b5f602082840312156100de576100dd61006b565b5b5f6100eb848285016100b5565b91505092915050565b6080516113646101135f395f81816102ab015261095f01526113645ff3fe608060405234801561000f575f5ffd5b50600436106100cd575f3560e01c8063723bc0201161008a578063ab60636c11610064578063ab60636c14610203578063b3066d4914610221578063b4ca7eb61461023d578063c3ff7d931461026d576100cd565b8063723bc020146101975780637effe568146101c757806382a11e6b146101e5576100cd565b80630a8a680a146100d1578063136018bc146100ef578063272e9d631461011f57806327ff62231461013d5780634a6b51d11461015b57806370f3dcb114610179575b5f5ffd5b6100d961028b565b6040516100e69190610c8f565b60405180910390f35b61010960048036038101906101049190610cd6565b610291565b6040516101169190610c8f565b60405180910390f35b61012761073f565b6040516101349190610c8f565b60405180910390f35b610145610745565b6040516101529190610c8f565b60405180910390f35b61016361074b565b6040516101709190610d7b565b60405180910390f35b610181610770565b60405161018e9190610db4565b60405180910390f35b6101b160048036038101906101ac9190610cd6565b610795565b6040516101be9190610e3d565b60405180910390f35b6101cf610933565b6040516101dc9190610c8f565b60405180910390f35b6101ed610939565b6040516101fa9190610e7d565b60405180910390f35b61020b61095d565b6040516102189190610eb6565b60405180910390f35b61023b60048036038101906102369190610f0a565b610981565b005b61025760048036038101906102529190610cd6565b610ad3565b6040516102649190610e3d565b60405180910390f35b610275610c71565b6040516102829190610c8f565b60405180910390f35b61025881565b5f5f73ffffffffffffffffffffffffffffffffffffffff167f000000000000000000000000000000000000000000000000000000000000000073ffffffffffffffffffffffffffffffffffffffff1663c41a360a846040518263ffffffff1660e01b81526004016103029190610c8f565b602060405180830381865afa15801561031d573d5f5f3e3d5ffd5b505050506040513d601f19601f820116820180604052508101906103419190610f6e565b73ffffffffffffffffffffffffffffffffffffffff1603610364575f905061073a565b5f6103e890505f73ffffffffffffffffffffffffffffffffffffffff165f5f9054906101000a900473ffffffffffffffffffffffffffffffffffffffff1673ffffffffffffffffffffffffffffffffffffffff1614610513575f5f5f5f5f9054906101000a900473ffffffffffffffffffffffffffffffffffffffff1673ffffffffffffffffffffffffffffffffffffffff166317550c5d876040518263ffffffff1660e01b81526004016104199190610c8f565b606060405180830381865afa158015610434573d5f5f3e3d5ffd5b505050506040513d601f19601f820116820180604052508101906104589190610fad565b9250925092505f81838561046c919061102a565b610476919061102a565b90505f81111561050e575f828561048d9190611066565b90505f600a831161049e57826104a1565b600a5b610258836104af91906110a6565b6104b99190611149565b90505f8113156104d65780876104cf919061102a565b965061050b565b5f811280156104ed575086816104eb906111b1565b105b1561050a57806104fc906111b1565b8761050791906111f7565b96505b5b50505b505050505b5f73ffffffffffffffffffffffffffffffffffffffff1660015f9054906101000a900473ffffffffffffffffffffffffffffffffffffffff1673ffffffffffffffffffffffffffffffffffffffff1614610725575f60015f9054906101000a900473ffffffffffffffffffffffffffffffffffffffff1673ffffffffffffffffffffffffffffffffffffffff1663f5fa90bd856040518263ffffffff1660e01b81526004016105c29190610c8f565b602060405180830381865afa1580156105dd573d5f5f3e3d5ffd5b505050506040513d601f19601f82011682018060405250810190610601919061122a565b90505f60015f9054906101000a900473ffffffffffffffffffffffffffffffffffffffff1673ffffffffffffffffffffffffffffffffffffffff16633ee44a48866040518263ffffffff1660e01b815260040161065e9190610c8f565b602060405180830381865afa158015610679573d5f5f3e3d5ffd5b505050506040513d601f19601f8201168201806040525081019061069d919061122a565b90505f678ac7230489e80000610320846106b79190611255565b6106c19190611296565b90506103208111156106d35761032090505b60018211156107135760146001836106eb91906111f7565b6106f59190611255565b81610700919061102a565b90506103208111156107125761032090505b5b808461071f919061102a565b93505050505b610af081111561073557610af090505b809150505b919050565b61032081565b610af081565b60015f9054906101000a900473ffffffffffffffffffffffffffffffffffffffff1681565b60025f9054906101000a900473ffffffffffffffffffffffffffffffffffffffff1681565b606061096082106107dd576040518060400160405280600481526020017ff09f9fa300000000000000000000000000000000000000000000000000000000815250905061092e565b6107088210610823576040518060400160405280600481526020017ff09f94b500000000000000000000000000000000000000000000000000000000815250905061092e565b6105788210610869576040518060400160405280600481526020017ff09f9fa200000000000000000000000000000000000000000000000000000000815250905061092e565b6104b082106108af576040518060400160405280600481526020017ff09f9fa100000000000000000000000000000000000000000000000000000000815250905061092e565b61032082106108f5576040518060400160405280600481526020017ff09f9fa000000000000000000000000000000000000000000000000000000000815250905061092e565b6040518060400160405280600481526020017ff09f94b40000000000000000000000000000000000000000000000000000000081525090505b919050565b6103e881565b5f5f9054906101000a900473ffffffffffffffffffffffffffffffffffffffff1681565b7f000000000000000000000000000000000000000000000000000000000000000081565b5f73ffffffffffffffffffffffffffffffffffffffff165f5f9054906101000a900473ffffffffffffffffffffffffffffffffffffffff1673ffffffffffffffffffffffffffffffffffffffff1614610a0f576040517f08c379a0000000000000000000000000000000000000000000000000000000008152600401610a0690611310565b60405180910390fd5b825f5f6101000a81548173ffffffffffffffffffffffffffffffffffffffff021916908373ffffffffffffffffffffffffffffffffffffffff1602179055508160015f6101000a81548173ffffffffffffffffffffffffffffffffffffffff021916908373ffffffffffffffffffffffffffffffffffffffff1602179055508060025f6101000a81548173ffffffffffffffffffffffffffffffffffffffff021916908373ffffffffffffffffffffffffffffffffffffffff160217905550505050565b60606109608210610b1b576040518060400160405280600881526020017f52656e6f776e65640000000000000000000000000000000000000000000000008152509050610c6c565b6107088210610b61576040518060400160405280600981526020017f526570757461626c6500000000000000000000000000000000000000000000008152509050610c6c565b6105788210610ba7576040518060400160405280600b81526020017f45737461626c69736865640000000000000000000000000000000000000000008152509050610c6c565b6104b08210610bed576040518060400160405280600781526020017f4e65757472616c000000000000000000000000000000000000000000000000008152509050610c6c565b6103208210610c33576040518060400160405280600c81526020017f5175657374696f6e61626c6500000000000000000000000000000000000000008152509050610c6c565b6040518060400160405280600981526020017f556e74727573746564000000000000000000000000000000000000000000000081525090505b919050565b61025881565b5f819050919050565b610c8981610c77565b82525050565b5f602082019050610ca25f830184610c80565b92915050565b5f5ffd5b610cb581610c77565b8114610cbf575f5ffd5b50565b5f81359050610cd081610cac565b92915050565b5f60208284031215610ceb57610cea610ca8565b5b5f610cf884828501610cc2565b91505092915050565b5f73ffffffffffffffffffffffffffffffffffffffff82169050919050565b5f819050919050565b5f610d43610d3e610d3984610d01565b610d20565b610d01565b9050919050565b5f610d5482610d29565b9050919050565b5f610d6582610d4a565b9050919050565b610d7581610d5b565b82525050565b5f602082019050610d8e5f830184610d6c565b92915050565b5f610d9e82610d4a565b9050919050565b610dae81610d94565b82525050565b5f602082019050610dc75f830184610da5565b92915050565b5f81519050919050565b5f82825260208201905092915050565b8281835e5f83830152505050565b5f601f19601f8301169050919050565b5f610e0f82610dcd565b610e198185610dd7565b9350610e29818560208601610de7565b610e3281610df5565b840191505092915050565b5f6020820190508181035f830152610e558184610e05565b905092915050565b5f610e6782610d4a565b9050919050565b610e7781610e5d565b82525050565b5f602082019050610e905f830184610e6e565b92915050565b5f610ea082610d4a565b9050919050565b610eb081610e96565b82525050565b5f602082019050610ec95f830184610ea7565b92915050565b5f610ed982610d01565b9050919050565b610ee981610ecf565b8114610ef3575f5ffd5b50565b5f81359050610f0481610ee0565b92915050565b5f5f5f60608486031215610f2157610f20610ca8565b5b5f610f2e86828701610ef6565b9350506020610f3f86828701610ef6565b9250506040610f5086828701610ef6565b9150509250925092565b5f81519050610f6881610ee0565b92915050565b5f60208284031215610f8357610f82610ca8565b5b5f610f9084828501610f5a565b91505092915050565b5f81519050610fa781610cac565b92915050565b5f5f5f60608486031215610fc457610fc3610ca8565b5b5f610fd186828701610f99565b9350506020610fe286828701610f99565b9250506040610ff386828701610f99565b9150509250925092565b7f4e487b71000000000000000000000000000000000000000000000000000000005f52601160045260245ffd5b5f61103482610c77565b915061103f83610c77565b925082820190508082111561105757611056610ffd565b5b92915050565b5f819050919050565b5f6110708261105d565b915061107b8361105d565b925082820390508181125f8412168282135f8512151617156110a05761109f610ffd565b5b92915050565b5f6110b08261105d565b91506110bb8361105d565b92508282026110c98161105d565b91507f800000000000000000000000000000000000000000000000000000000000000084145f84121615611100576110ff610ffd565b5b828205841483151761111557611114610ffd565b5b5092915050565b7f4e487b71000000000000000000000000000000000000000000000000000000005f52601260045260245ffd5b5f6111538261105d565b915061115e8361105d565b92508261116e5761116d61111c565b5b60015f0383147f8000000000000000000000000000000000000000000000000000000000000000831416156111a6576111a5610ffd565b5b828205905092915050565b5f6111bb8261105d565b91507f800000000000000000000000000000000000000000000000000000000000000082036111ed576111ec610ffd565b5b815f039050919050565b5f61120182610c77565b915061120c83610c77565b925082820390508181111561122457611223610ffd565b5b92915050565b5f6020828403121561123f5761123e610ca8565b5b5f61124c84828501610f99565b91505092915050565b5f61125f82610c77565b915061126a83610c77565b925082820261127881610c77565b9150828204841483151761128f5761128e610ffd565b5b5092915050565b5f6112a082610c77565b91506112ab83610c77565b9250826112bb576112ba61111c565b5b828204905092915050565b7f416c7265616479207365740000000000000000000000000000000000000000005f82015250565b5f6112fa600b83610dd7565b9150611305826112c6565b602082019050919050565b5f6020820190508181035f830152611327816112ee565b905091905056fea26469706673582212206d3d75419c25212d9318f61523d576fc21988c1e040b65b6ed4ae5e60cdd21cf64736f6c634300081c0033","linkReferences":{}},"methodIdentifiers":{"BASE_SCORE()":"7effe568","MAX_REVIEW_IMPACT()":"0a8a680a","MAX_SCORE()":"27ff6223","MAX_SLASH_IMPACT()":"c3ff7d93","MAX_VOUCH_IMPACT()":"272e9d63","calculateScore(uint256)":"136018bc","getScoreEmoji(uint256)":"723bc020","getScoreLevel(uint256)":"b4ca7eb6","profile()":"ab60636c","reviewContract()":"82a11e6b","setContracts(address,address,address)":"b3066d49","slashContract()":"70f3dcb1","vouchContract()":"4a6b51d1"},"id":18}