{"abi":[{"type":"constructor","inputs":[{"name":"_profile","type":"address","internalType":"address"},{"name":"_review","type":"address","internalType":"address"},{"name":"_vouch","type":"address","internalType":"address"}],"stateMutability":"nonpayable"},{"type":"function","name":"BASE_SCORE","inputs":[],"outputs":[{"name":"","type":"uint256","internalType":"uint256"}],"stateMutability":"view"},{"type":"function","name":"MAX_REVIEW_IMPACT","inputs":[],"outputs":[{"name":"","type":"uint256","internalType":"uint256"}],"stateMutability":"view"},{"type":"function","name":"VOUCH_MULTIPLIER","inputs":[],"outputs":[{"name":"","type":"uint256","internalType":"uint256"}],"stateMutability":"view"},{"type":"function","name":"calculateScore","inputs":[{"name":"agentId","type":"uint256","internalType":"uint256"}],"outputs":[{"name":"","type":"uint256","internalType":"uint256"}],"stateMutability":"view"},{"type":"function","name":"profile","inputs":[],"outputs":[{"name":"","type":"address","internalType":"contract IMoltProfile"}],"stateMutability":"view"},{"type":"function","name":"reviewContract","inputs":[],"outputs":[{"name":"","type":"address","internalType":"contract IMoltReview"}],"stateMutability":"view"},{"type":"function","name":"vouchContract","inputs":[],"outputs":[{"name":"","type":"address","internalType":"contract IMoltVouch"}],"stateMutability":"view"}],"bytecode":{"object":"0x60e060405234801561000f575f5ffd5b50604051610acf380380610acf83398181016040528101906100319190610133565b8273ffffffffffffffffffffffffffffffffffffffff1660808173ffffffffffffffffffffffffffffffffffffffff16815250508173ffffffffffffffffffffffffffffffffffffffff1660a08173ffffffffffffffffffffffffffffffffffffffff16815250508073ffffffffffffffffffffffffffffffffffffffff1660c08173ffffffffffffffffffffffffffffffffffffffff1681525050505050610183565b5f5ffd5b5f73ffffffffffffffffffffffffffffffffffffffff82169050919050565b5f610102826100d9565b9050919050565b610112816100f8565b811461011c575f5ffd5b50565b5f8151905061012d81610109565b92915050565b5f5f5f6060848603121561014a576101496100d5565b5b5f6101578682870161011f565b93505060206101688682870161011f565b92505060406101798682870161011f565b9150509250925092565b60805160a05160c05161090d6101c25f395f81816103d901526104b201525f818161024501526104dc01525f81816101820152610500015261090d5ff3fe608060405234801561000f575f5ffd5b506004361061007b575f3560e01c80634a6b51d1116100595780634a6b51d1146100eb5780637effe5681461010957806382a11e6b14610127578063ab60636c146101455761007b565b80630a8a680a1461007f578063136018bc1461009d57806318939e84146100cd575b5f5ffd5b610087610163565b604051610094919061053a565b60405180910390f35b6100b760048036038101906100b29190610581565b610168565b6040516100c4919061053a565b60405180910390f35b6100d56104ab565b6040516100e2919061053a565b60405180910390f35b6100f36104b0565b6040516101009190610626565b60405180910390f35b6101116104d4565b60405161011e919061053a565b60405180910390f35b61012f6104da565b60405161013c919061065f565b60405180910390f35b61014d6104fe565b60405161015a9190610698565b60405180910390f35b60c881565b5f5f73ffffffffffffffffffffffffffffffffffffffff167f000000000000000000000000000000000000000000000000000000000000000073ffffffffffffffffffffffffffffffffffffffff1663c41a360a846040518263ffffffff1660e01b81526004016101d9919061053a565b602060405180830381865afa1580156101f4573d5f5f3e3d5ffd5b505050506040513d601f19601f8201168201806040525081019061021891906106ec565b73ffffffffffffffffffffffffffffffffffffffff160361023b575f90506104a6565b5f6104b090505f5f7f000000000000000000000000000000000000000000000000000000000000000073ffffffffffffffffffffffffffffffffffffffff16638d01e712866040518263ffffffff1660e01b815260040161029c919061053a565b606060405180830381865afa1580156102b7573d5f5f3e3d5ffd5b505050506040513d601f19601f820116820180604052508101906102db919061072b565b92505091505f81836102ed91906107a8565b90505f8111156103d6578183111561035e575f828461030c91906107db565b90505f600a831161031d5782610320565b600a5b60c88361032d919061080e565b610337919061087c565b905060c88111610347578061034a565b60c85b8661035591906107a8565b955050506103d5565b828211156103d4575f838361037391906107db565b90505f600a83116103845782610387565b600a5b60c883610394919061080e565b61039e919061087c565b90505f60c882116103af57816103b2565b60c85b90508087116103c1575f6103ce565b80876103cd91906107db565b5b96505050505b5b5b5f7f000000000000000000000000000000000000000000000000000000000000000073ffffffffffffffffffffffffffffffffffffffff1663f5fa90bd886040518263ffffffff1660e01b8152600401610430919061053a565b602060405180830381865afa15801561044b573d5f5f3e3d5ffd5b505050506040513d601f19601f8201168201806040525081019061046f91906108ac565b9050662386f26fc10000606482610486919061080e565b610490919061087c565b8561049b91906107a8565b945084955050505050505b919050565b606481565b7f000000000000000000000000000000000000000000000000000000000000000081565b6104b081565b7f000000000000000000000000000000000000000000000000000000000000000081565b7f000000000000000000000000000000000000000000000000000000000000000081565b5f819050919050565b61053481610522565b82525050565b5f60208201905061054d5f83018461052b565b92915050565b5f5ffd5b61056081610522565b811461056a575f5ffd5b50565b5f8135905061057b81610557565b92915050565b5f6020828403121561059657610595610553565b5b5f6105a38482850161056d565b91505092915050565b5f73ffffffffffffffffffffffffffffffffffffffff82169050919050565b5f819050919050565b5f6105ee6105e96105e4846105ac565b6105cb565b6105ac565b9050919050565b5f6105ff826105d4565b9050919050565b5f610610826105f5565b9050919050565b61062081610606565b82525050565b5f6020820190506106395f830184610617565b92915050565b5f610649826105f5565b9050919050565b6106598161063f565b82525050565b5f6020820190506106725f830184610650565b92915050565b5f610682826105f5565b9050919050565b61069281610678565b82525050565b5f6020820190506106ab5f830184610689565b92915050565b5f6106bb826105ac565b9050919050565b6106cb816106b1565b81146106d5575f5ffd5b50565b5f815190506106e6816106c2565b92915050565b5f6020828403121561070157610700610553565b5b5f61070e848285016106d8565b91505092915050565b5f8151905061072581610557565b92915050565b5f5f5f6060848603121561074257610741610553565b5b5f61074f86828701610717565b935050602061076086828701610717565b925050604061077186828701610717565b9150509250925092565b7f4e487b71000000000000000000000000000000000000000000000000000000005f52601160045260245ffd5b5f6107b282610522565b91506107bd83610522565b92508282019050808211156107d5576107d461077b565b5b92915050565b5f6107e582610522565b91506107f083610522565b92508282039050818111156108085761080761077b565b5b92915050565b5f61081882610522565b915061082383610522565b925082820261083181610522565b915082820484148315176108485761084761077b565b5b5092915050565b7f4e487b71000000000000000000000000000000000000000000000000000000005f52601260045260245ffd5b5f61088682610522565b915061089183610522565b9250826108a1576108a061084f565b5b828204905092915050565b5f602082840312156108c1576108c0610553565b5b5f6108ce84828501610717565b9150509291505056fea264697066735822122087f7fe7c59431c6f8a557cb84f069148e33bee3a3b606d65ca54d77153b8944364736f6c634300081c0033","linkReferences":{}},"methodIdentifiers":{"BASE_SCORE()":"7effe568","MAX_REVIEW_IMPACT()":"0a8a680a","VOUCH_MULTIPLIER()":"18939e84","calculateScore(uint256)":"136018bc","profile()":"ab60636c","reviewContract()":"82a11e6b","vouchContract()":"4a6b51d1"},"id":17}