{"abi":[{"type":"constructor","inputs":[{"name":"_profile","type":"address","internalType":"address"},{"name":"_review","type":"address","internalType":"address"},{"name":"_vouch","type":"address","internalType":"address"}],"stateMutability":"nonpayable"},{"type":"function","name":"BASE_SCORE","inputs":[],"outputs":[{"name":"","type":"uint256","internalType":"uint256"}],"stateMutability":"view"},{"type":"function","name":"MAX_REVIEW_IMPACT","inputs":[],"outputs":[{"name":"","type":"uint256","internalType":"uint256"}],"stateMutability":"view"},{"type":"function","name":"VOUCH_DIVISOR","inputs":[],"outputs":[{"name":"","type":"uint256","internalType":"uint256"}],"stateMutability":"view"},{"type":"function","name":"calculateScore","inputs":[{"name":"agentId","type":"uint256","internalType":"uint256"}],"outputs":[{"name":"","type":"uint256","internalType":"uint256"}],"stateMutability":"view"},{"type":"function","name":"profile","inputs":[],"outputs":[{"name":"","type":"address","internalType":"contract IMoltProfile"}],"stateMutability":"view"},{"type":"function","name":"reviewContract","inputs":[],"outputs":[{"name":"","type":"address","internalType":"contract IMoltReview"}],"stateMutability":"view"},{"type":"function","name":"vouchContract","inputs":[],"outputs":[{"name":"","type":"address","internalType":"contract IMoltVouch"}],"stateMutability":"view"}],"bytecode":{"object":"0x60e060405234801561000f575f5ffd5b50604051610a5f380380610a5f83398181016040528101906100319190610133565b8273ffffffffffffffffffffffffffffffffffffffff1660808173ffffffffffffffffffffffffffffffffffffffff16815250508173ffffffffffffffffffffffffffffffffffffffff1660a08173ffffffffffffffffffffffffffffffffffffffff16815250508073ffffffffffffffffffffffffffffffffffffffff1660c08173ffffffffffffffffffffffffffffffffffffffff1681525050505050610183565b5f5ffd5b5f73ffffffffffffffffffffffffffffffffffffffff82169050919050565b5f610102826100d9565b9050919050565b610112816100f8565b811461011c575f5ffd5b50565b5f8151905061012d81610109565b92915050565b5f5f5f6060848603121561014a576101496100d5565b5b5f6101578682870161011f565b93505060206101688682870161011f565b92505060406101798682870161011f565b9150509250925092565b60805160a05160c05161089d6101c25f395f818161036e015261043601525f8181610245015261046c01525f81816101820152610490015261089d5ff3fe608060405234801561000f575f5ffd5b506004361061007b575f3560e01c8063575554131161005957806357555413146100eb5780637effe5681461010957806382a11e6b14610127578063ab60636c146101455761007b565b80630a8a680a1461007f578063136018bc1461009d5780634a6b51d1146100cd575b5f5ffd5b610087610163565b60405161009491906104ca565b60405180910390f35b6100b760048036038101906100b29190610511565b610168565b6040516100c491906104ca565b60405180910390f35b6100d5610434565b6040516100e291906105b6565b60405180910390f35b6100f3610458565b60405161010091906104ca565b60405180910390f35b610111610464565b60405161011e91906104ca565b60405180910390f35b61012f61046a565b60405161013c91906105ef565b60405180910390f35b61014d61048e565b60405161015a9190610628565b60405180910390f35b606481565b5f5f73ffffffffffffffffffffffffffffffffffffffff167f000000000000000000000000000000000000000000000000000000000000000073ffffffffffffffffffffffffffffffffffffffff1663c41a360a846040518263ffffffff1660e01b81526004016101d991906104ca565b602060405180830381865afa1580156101f4573d5f5f3e3d5ffd5b505050506040513d601f19601f82011682018060405250810190610218919061067c565b73ffffffffffffffffffffffffffffffffffffffff160361023b575f905061042f565b5f6104b090505f5f7f000000000000000000000000000000000000000000000000000000000000000073ffffffffffffffffffffffffffffffffffffffff16638d01e712866040518263ffffffff1660e01b815260040161029c91906104ca565b606060405180830381865afa1580156102b7573d5f5f3e3d5ffd5b505050506040513d601f19601f820116820180604052508101906102db91906106bb565b925050915080821115610327575f600a82846102f79190610738565b610301919061076b565b9050606481116103115780610314565b60645b8461031f91906107ac565b93505061036b565b8181111561036a575f600a838361033e9190610738565b610348919061076b565b905080841161035957610320610366565b80846103659190610738565b5b9350505b5b5f7f000000000000000000000000000000000000000000000000000000000000000073ffffffffffffffffffffffffffffffffffffffff1663f5fa90bd876040518263ffffffff1660e01b81526004016103c591906104ca565b602060405180830381865afa1580156103e0573d5f5f3e3d5ffd5b505050506040513d601f19601f8201168201806040525081019061040491906107df565b905067016345785d8a00008161041a9190610837565b8461042591906107ac565b9350839450505050505b919050565b7f000000000000000000000000000000000000000000000000000000000000000081565b67016345785d8a000081565b6104b081565b7f000000000000000000000000000000000000000000000000000000000000000081565b7f000000000000000000000000000000000000000000000000000000000000000081565b5f819050919050565b6104c4816104b2565b82525050565b5f6020820190506104dd5f8301846104bb565b92915050565b5f5ffd5b6104f0816104b2565b81146104fa575f5ffd5b50565b5f8135905061050b816104e7565b92915050565b5f60208284031215610526576105256104e3565b5b5f610533848285016104fd565b91505092915050565b5f73ffffffffffffffffffffffffffffffffffffffff82169050919050565b5f819050919050565b5f61057e6105796105748461053c565b61055b565b61053c565b9050919050565b5f61058f82610564565b9050919050565b5f6105a082610585565b9050919050565b6105b081610596565b82525050565b5f6020820190506105c95f8301846105a7565b92915050565b5f6105d982610585565b9050919050565b6105e9816105cf565b82525050565b5f6020820190506106025f8301846105e0565b92915050565b5f61061282610585565b9050919050565b61062281610608565b82525050565b5f60208201905061063b5f830184610619565b92915050565b5f61064b8261053c565b9050919050565b61065b81610641565b8114610665575f5ffd5b50565b5f8151905061067681610652565b92915050565b5f60208284031215610691576106906104e3565b5b5f61069e84828501610668565b91505092915050565b5f815190506106b5816104e7565b92915050565b5f5f5f606084860312156106d2576106d16104e3565b5b5f6106df868287016106a7565b93505060206106f0868287016106a7565b9250506040610701868287016106a7565b9150509250925092565b7f4e487b71000000000000000000000000000000000000000000000000000000005f52601160045260245ffd5b5f610742826104b2565b915061074d836104b2565b92508282039050818111156107655761076461070b565b5b92915050565b5f610775826104b2565b9150610780836104b2565b925082820261078e816104b2565b915082820484148315176107a5576107a461070b565b5b5092915050565b5f6107b6826104b2565b91506107c1836104b2565b92508282019050808211156107d9576107d861070b565b5b92915050565b5f602082840312156107f4576107f36104e3565b5b5f610801848285016106a7565b91505092915050565b7f4e487b71000000000000000000000000000000000000000000000000000000005f52601260045260245ffd5b5f610841826104b2565b915061084c836104b2565b92508261085c5761085b61080a565b5b82820490509291505056fea26469706673582212208038874e098d0f07ef8cafc83e62d65d5f0b10156411e93eeaf5274a42c62cf964736f6c634300081c0033","linkReferences":{}},"methodIdentifiers":{"BASE_SCORE()":"7effe568","MAX_REVIEW_IMPACT()":"0a8a680a","VOUCH_DIVISOR()":"57555413","calculateScore(uint256)":"136018bc","profile()":"ab60636c","reviewContract()":"82a11e6b","vouchContract()":"4a6b51d1"},"id":16}