{"abi":[{"type":"constructor","inputs":[{"name":"_profile","type":"address","internalType":"address"}],"stateMutability":"nonpayable"},{"type":"function","name":"getReviewCount","inputs":[{"name":"agentId","type":"uint256","internalType":"uint256"}],"outputs":[{"name":"","type":"uint256","internalType":"uint256"}],"stateMutability":"view"},{"type":"function","name":"getReviewStats","inputs":[{"name":"agentId","type":"uint256","internalType":"uint256"}],"outputs":[{"name":"positive","type":"uint256","internalType":"uint256"},{"name":"neutral","type":"uint256","internalType":"uint256"},{"name":"negative","type":"uint256","internalType":"uint256"}],"stateMutability":"view"},{"type":"function","name":"getReviews","inputs":[{"name":"agentId","type":"uint256","internalType":"uint256"}],"outputs":[{"name":"","type":"tuple[]","internalType":"struct MoltReview.Review[]","components":[{"name":"reviewerId","type":"uint256","internalType":"uint256"},{"name":"targetId","type":"uint256","internalType":"uint256"},{"name":"sentiment","type":"uint8","internalType":"enum MoltReview.Sentiment"},{"name":"content","type":"string","internalType":"string"},{"name":"timestamp","type":"uint256","internalType":"uint256"}]}],"stateMutability":"view"},{"type":"function","name":"hasReviewed","inputs":[{"name":"","type":"uint256","internalType":"uint256"},{"name":"","type":"uint256","internalType":"uint256"}],"outputs":[{"name":"","type":"bool","internalType":"bool"}],"stateMutability":"view"},{"type":"function","name":"profile","inputs":[],"outputs":[{"name":"","type":"address","internalType":"contract IMoltProfile"}],"stateMutability":"view"},{"type":"function","name":"review","inputs":[{"name":"reviewerId","type":"uint256","internalType":"uint256"},{"name":"targetId","type":"uint256","internalType":"uint256"},{"name":"sentiment","type":"uint8","internalType":"enum MoltReview.Sentiment"},{"name":"content","type":"string","internalType":"string"}],"outputs":[],"stateMutability":"nonpayable"},{"type":"function","name":"reviewsFor","inputs":[{"name":"","type":"uint256","internalType":"uint256"},{"name":"","type":"uint256","internalType":"uint256"}],"outputs":[{"name":"reviewerId","type":"uint256","internalType":"uint256"},{"name":"targetId","type":"uint256","internalType":"uint256"},{"name":"sentiment","type":"uint8","internalType":"enum MoltReview.Sentiment"},{"name":"content","type":"string","internalType":"string"},{"name":"timestamp","type":"uint256","internalType":"uint256"}],"stateMutability":"view"},{"type":"function","name":"totalReviews","inputs":[],"outputs":[{"name":"","type":"uint256","internalType":"uint256"}],"stateMutability":"view"},{"type":"event","name":"ReviewSubmitted","inputs":[{"name":"reviewerId","type":"uint256","indexed":true,"internalType":"uint256"},{"name":"targetId","type":"uint256","indexed":true,"internalType":"uint256"},{"name":"sentiment","type":"uint8","indexed":false,"internalType":"enum MoltReview.Sentiment"},{"name":"content","type":"string","indexed":false,"internalType":"string"}],"anonymous":false},{"type":"error","name":"AlreadyReviewed","inputs":[]},{"type":"error","name":"CannotReviewSelf","inputs":[]},{"type":"error","name":"NotRegistered","inputs":[]},{"type":"error","name":"TargetNotRegistered","inputs":[]}],"bytecode":{"object":"0x60a060405234801561000f575f5ffd5b50604051611549380380611549833981810160405281019061003191906100c9565b8073ffffffffffffffffffffffffffffffffffffffff1660808173ffffffffffffffffffffffffffffffffffffffff1681525050506100f4565b5f5ffd5b5f73ffffffffffffffffffffffffffffffffffffffff82169050919050565b5f6100988261006f565b9050919050565b6100a88161008e565b81146100b2575f5ffd5b50565b5f815190506100c38161009f565b92915050565b5f602082840312156100de576100dd61006b565b5b5f6100eb848285016100b5565b91505092915050565b60805161142f61011a5f395f81816101f1015281816102ed01526108d5015261142f5ff3fe608060405234801561000f575f5ffd5b5060043610610086575f3560e01c80639d4a2255116100595780639d4a225514610138578063ab60636c14610168578063b88138c714610186578063e2367890146101ba57610086565b806302ea20011461008a57806317550c5d146100a65780635d75135a146100d85780637c30c1ba14610108575b5f5ffd5b6100a4600480360381019061009f9190610a99565b6101d8565b005b6100c060048036038101906100bb9190610b1d565b610614565b6040516100cf93929190610b57565b60405180910390f35b6100f260048036038101906100ed9190610b1d565b61073a565b6040516100ff9190610b8c565b60405180910390f35b610122600480360381019061011d9190610ba5565b610756565b60405161012f9190610bfd565b60405180910390f35b610152600480360381019061014d9190610b1d565b610780565b60405161015f9190610e36565b60405180910390f35b6101706108d3565b60405161017d9190610ed0565b60405180910390f35b6101a0600480360381019061019b9190610ba5565b6108f7565b6040516101b1959493929190610f40565b60405180910390f35b6101c26109d4565b6040516101cf9190610b8c565b60405180910390f35b3373ffffffffffffffffffffffffffffffffffffffff167f000000000000000000000000000000000000000000000000000000000000000073ffffffffffffffffffffffffffffffffffffffff1663c41a360a876040518263ffffffff1660e01b81526004016102489190610b8c565b602060405180830381865afa158015610263573d5f5f3e3d5ffd5b505050506040513d601f19601f820116820180604052508101906102879190610fd3565b73ffffffffffffffffffffffffffffffffffffffff16146102d4576040517faba4733900000000000000000000000000000000000000000000000000000000815260040160405180910390fd5b5f73ffffffffffffffffffffffffffffffffffffffff167f000000000000000000000000000000000000000000000000000000000000000073ffffffffffffffffffffffffffffffffffffffff1663c41a360a866040518263ffffffff1660e01b81526004016103449190610b8c565b602060405180830381865afa15801561035f573d5f5f3e3d5ffd5b505050506040513d601f19601f820116820180604052508101906103839190610fd3565b73ffffffffffffffffffffffffffffffffffffffff16036103d0576040517fd27b87e200000000000000000000000000000000000000000000000000000000815260040160405180910390fd5b838503610409576040517f85ea03d700000000000000000000000000000000000000000000000000000000815260040160405180910390fd5b60015f8681526020019081526020015f205f8581526020019081526020015f205f9054906101000a900460ff161561046d576040517f96c3b41100000000000000000000000000000000000000000000000000000000815260040160405180910390fd5b6001805f8781526020019081526020015f205f8681526020019081526020015f205f6101000a81548160ff02191690831515021790555060025f8154809291906104b69061102b565b91905055505f5f8581526020019081526020015f206040518060a001604052808781526020018681526020018560028111156104f5576104f4610c4e565b5b815260200184848080601f0160208091040260200160405190810160405280939291908181526020018383808284375f81840152601f19601f82011690508083019250505050505050815260200142815250908060018154018082558091505060019003905f5260205f2090600502015f909190919091505f820151815f0155602082015181600101556040820151816002015f6101000a81548160ff021916908360028111156105a9576105a8610c4e565b5b021790555060608201518160030190816105c39190611293565b5060808201518160040155505083857f3ceff674a2be02aef9e063b81b318ec77d21cc11c0a17bc8dfdaf3429a91c5a18585856040516106059392919061139c565b60405180910390a35050505050565b5f5f5f5f5f5f8681526020019081526020015f2090505f5f90505b81805490508110156107315760028081111561064e5761064d610c4e565b5b828281548110610661576106606113cc565b5b905f5260205f2090600502016002015f9054906101000a900460ff16600281111561068f5761068e610c4e565b5b036106a757848061069f9061102b565b955050610724565b600160028111156106bb576106ba610c4e565b5b8282815481106106ce576106cd6113cc565b5b905f5260205f2090600502016002015f9054906101000a900460ff1660028111156106fc576106fb610c4e565b5b0361071457838061070c9061102b565b945050610723565b828061071f9061102b565b9350505b5b808060010191505061062f565b50509193909250565b5f5f5f8381526020019081526020015f20805490509050919050565b6001602052815f5260405f20602052805f5260405f205f915091509054906101000a900460ff1681565b60605f5f8381526020019081526020015f20805480602002602001604051908101604052809291908181526020015f905b828210156108c8578382905f5260205f2090600502016040518060a00160405290815f820154815260200160018201548152602001600282015f9054906101000a900460ff16600281111561080957610808610c4e565b5b600281111561081b5761081a610c4e565b5b815260200160038201805461082f906110cc565b80601f016020809104026020016040519081016040528092919081815260200182805461085b906110cc565b80156108a65780601f1061087d576101008083540402835291602001916108a6565b820191905f5260205f20905b81548152906001019060200180831161088957829003601f168201915b50505050508152602001600482015481525050815260200190600101906107b1565b505050509050919050565b7f000000000000000000000000000000000000000000000000000000000000000081565b5f602052815f5260405f20818154811061090f575f80fd5b905f5260205f2090600502015f9150915050805f015490806001015490806002015f9054906101000a900460ff169080600301805461094d906110cc565b80601f0160208091040260200160405190810160405280929190818152602001828054610979906110cc565b80156109c45780601f1061099b576101008083540402835291602001916109c4565b820191905f5260205f20905b8154815290600101906020018083116109a757829003601f168201915b5050505050908060040154905085565b60025481565b5f5ffd5b5f5ffd5b5f819050919050565b6109f4816109e2565b81146109fe575f5ffd5b50565b5f81359050610a0f816109eb565b92915050565b60038110610a21575f5ffd5b50565b5f81359050610a3281610a15565b92915050565b5f5ffd5b5f5ffd5b5f5ffd5b5f5f83601f840112610a5957610a58610a38565b5b8235905067ffffffffffffffff811115610a7657610a75610a3c565b5b602083019150836001820283011115610a9257610a91610a40565b5b9250929050565b5f5f5f5f5f60808688031215610ab257610ab16109da565b5b5f610abf88828901610a01565b9550506020610ad088828901610a01565b9450506040610ae188828901610a24565b935050606086013567ffffffffffffffff811115610b0257610b016109de565b5b610b0e88828901610a44565b92509250509295509295909350565b5f60208284031215610b3257610b316109da565b5b5f610b3f84828501610a01565b91505092915050565b610b51816109e2565b82525050565b5f606082019050610b6a5f830186610b48565b610b776020830185610b48565b610b846040830184610b48565b949350505050565b5f602082019050610b9f5f830184610b48565b92915050565b5f5f60408385031215610bbb57610bba6109da565b5b5f610bc885828601610a01565b9250506020610bd985828601610a01565b9150509250929050565b5f8115159050919050565b610bf781610be3565b82525050565b5f602082019050610c105f830184610bee565b92915050565b5f81519050919050565b5f82825260208201905092915050565b5f819050602082019050919050565b610c48816109e2565b82525050565b7f4e487b71000000000000000000000000000000000000000000000000000000005f52602160045260245ffd5b60038110610c8c57610c8b610c4e565b5b50565b5f819050610c9c82610c7b565b919050565b5f610cab82610c8f565b9050919050565b610cbb81610ca1565b82525050565b5f81519050919050565b5f82825260208201905092915050565b8281835e5f83830152505050565b5f601f19601f8301169050919050565b5f610d0382610cc1565b610d0d8185610ccb565b9350610d1d818560208601610cdb565b610d2681610ce9565b840191505092915050565b5f60a083015f830151610d465f860182610c3f565b506020830151610d596020860182610c3f565b506040830151610d6c6040860182610cb2565b5060608301518482036060860152610d848282610cf9565b9150506080830151610d996080860182610c3f565b508091505092915050565b5f610daf8383610d31565b905092915050565b5f602082019050919050565b5f610dcd82610c16565b610dd78185610c20565b935083602082028501610de985610c30565b805f5b85811015610e245784840389528151610e058582610da4565b9450610e1083610db7565b925060208a01995050600181019050610dec565b50829750879550505050505092915050565b5f6020820190508181035f830152610e4e8184610dc3565b905092915050565b5f73ffffffffffffffffffffffffffffffffffffffff82169050919050565b5f819050919050565b5f610e98610e93610e8e84610e56565b610e75565b610e56565b9050919050565b5f610ea982610e7e565b9050919050565b5f610eba82610e9f565b9050919050565b610eca81610eb0565b82525050565b5f602082019050610ee35f830184610ec1565b92915050565b610ef281610ca1565b82525050565b5f82825260208201905092915050565b5f610f1282610cc1565b610f1c8185610ef8565b9350610f2c818560208601610cdb565b610f3581610ce9565b840191505092915050565b5f60a082019050610f535f830188610b48565b610f606020830187610b48565b610f6d6040830186610ee9565b8181036060830152610f7f8185610f08565b9050610f8e6080830184610b48565b9695505050505050565b5f610fa282610e56565b9050919050565b610fb281610f98565b8114610fbc575f5ffd5b50565b5f81519050610fcd81610fa9565b92915050565b5f60208284031215610fe857610fe76109da565b5b5f610ff584828501610fbf565b91505092915050565b7f4e487b71000000000000000000000000000000000000000000000000000000005f52601160045260245ffd5b5f611035826109e2565b91507fffffffffffffffffffffffffffffffffffffffffffffffffffffffffffffffff820361106757611066610ffe565b5b600182019050919050565b7f4e487b71000000000000000000000000000000000000000000000000000000005f52604160045260245ffd5b7f4e487b71000000000000000000000000000000000000000000000000000000005f52602260045260245ffd5b5f60028204905060018216806110e357607f821691505b6020821081036110f6576110f561109f565b5b50919050565b5f819050815f5260205f209050919050565b5f6020601f8301049050919050565b5f82821b905092915050565b5f600883026111587fffffffffffffffffffffffffffffffffffffffffffffffffffffffffffffffff8261111d565b611162868361111d565b95508019841693508086168417925050509392505050565b5f61119461118f61118a846109e2565b610e75565b6109e2565b9050919050565b5f819050919050565b6111ad8361117a565b6111c16111b98261119b565b848454611129565b825550505050565b5f5f905090565b6111d86111c9565b6111e38184846111a4565b505050565b5b81811015611206576111fb5f826111d0565b6001810190506111e9565b5050565b601f82111561124b5761121c816110fc565b6112258461110e565b81016020851015611234578190505b6112486112408561110e565b8301826111e8565b50505b505050565b5f82821c905092915050565b5f61126b5f1984600802611250565b1980831691505092915050565b5f611283838361125c565b9150826002028217905092915050565b61129c82610cc1565b67ffffffffffffffff8111156112b5576112b4611072565b5b6112bf82546110cc565b6112ca82828561120a565b5f60209050601f8311600181146112fb575f84156112e9578287015190505b6112f38582611278565b86555061135a565b601f198416611309866110fc565b5f5b828110156113305784890151825560018201915060208501945060208101905061130b565b8683101561134d5784890151611349601f89168261125c565b8355505b6001600288020188555050505b505050505050565b828183375f83830152505050565b5f61137b8385610ef8565b9350611388838584611362565b61139183610ce9565b840190509392505050565b5f6040820190506113af5f830186610ee9565b81810360208301526113c2818486611370565b9050949350505050565b7f4e487b71000000000000000000000000000000000000000000000000000000005f52603260045260245ffdfea26469706673582212205fc776bcce0e9c4680e02f7a6ee68c8b9c2afbb4aec2d2d49678a37ebd7cbf3664736f6c634300081c0033","linkReferences":{}},"methodIdentifiers":{"getReviewCount(uint256)":"5d75135a","getReviewStats(uint256)":"17550c5d","getReviews(uint256)":"9d4a2255","hasReviewed(uint256,uint256)":"7c30c1ba","profile()":"ab60636c","review(uint256,uint256,uint8,string)":"02ea2001","reviewsFor(uint256,uint256)":"b88138c7","totalReviews()":"e2367890"},"id":17}