{"abi":[{"type":"constructor","inputs":[{"name":"_profile","type":"address","internalType":"address"}],"stateMutability":"nonpayable"},{"type":"function","name":"getReviewCount","inputs":[{"name":"targetId","type":"uint256","internalType":"uint256"}],"outputs":[{"name":"","type":"uint256","internalType":"uint256"}],"stateMutability":"view"},{"type":"function","name":"getReviews","inputs":[{"name":"targetId","type":"uint256","internalType":"uint256"}],"outputs":[{"name":"","type":"tuple[]","internalType":"struct MoltReview.Review[]","components":[{"name":"reviewerId","type":"uint256","internalType":"uint256"},{"name":"targetId","type":"uint256","internalType":"uint256"},{"name":"sentiment","type":"uint8","internalType":"enum MoltReview.Sentiment"},{"name":"comment","type":"string","internalType":"string"},{"name":"timestamp","type":"uint256","internalType":"uint256"}]}],"stateMutability":"view"},{"type":"function","name":"getSentimentCounts","inputs":[{"name":"targetId","type":"uint256","internalType":"uint256"}],"outputs":[{"name":"positive","type":"uint256","internalType":"uint256"},{"name":"neutral","type":"uint256","internalType":"uint256"},{"name":"negative","type":"uint256","internalType":"uint256"}],"stateMutability":"view"},{"type":"function","name":"hasReviewed","inputs":[{"name":"","type":"uint256","internalType":"uint256"},{"name":"","type":"uint256","internalType":"uint256"}],"outputs":[{"name":"","type":"bool","internalType":"bool"}],"stateMutability":"view"},{"type":"function","name":"profile","inputs":[],"outputs":[{"name":"","type":"address","internalType":"contract IMoltProfile"}],"stateMutability":"view"},{"type":"function","name":"review","inputs":[{"name":"reviewerId","type":"uint256","internalType":"uint256"},{"name":"targetId","type":"uint256","internalType":"uint256"},{"name":"sentiment","type":"uint8","internalType":"enum MoltReview.Sentiment"},{"name":"comment","type":"string","internalType":"string"}],"outputs":[],"stateMutability":"nonpayable"},{"type":"function","name":"reviewIndex","inputs":[{"name":"","type":"uint256","internalType":"uint256"},{"name":"","type":"uint256","internalType":"uint256"}],"outputs":[{"name":"","type":"uint256","internalType":"uint256"}],"stateMutability":"view"},{"type":"function","name":"reviewsOf","inputs":[{"name":"","type":"uint256","internalType":"uint256"},{"name":"","type":"uint256","internalType":"uint256"}],"outputs":[{"name":"reviewerId","type":"uint256","internalType":"uint256"},{"name":"targetId","type":"uint256","internalType":"uint256"},{"name":"sentiment","type":"uint8","internalType":"enum MoltReview.Sentiment"},{"name":"comment","type":"string","internalType":"string"},{"name":"timestamp","type":"uint256","internalType":"uint256"}],"stateMutability":"view"},{"type":"function","name":"totalReviews","inputs":[],"outputs":[{"name":"","type":"uint256","internalType":"uint256"}],"stateMutability":"view"},{"type":"function","name":"updateReview","inputs":[{"name":"reviewerId","type":"uint256","internalType":"uint256"},{"name":"targetId","type":"uint256","internalType":"uint256"},{"name":"sentiment","type":"uint8","internalType":"enum MoltReview.Sentiment"},{"name":"comment","type":"string","internalType":"string"}],"outputs":[],"stateMutability":"nonpayable"},{"type":"event","name":"ReviewSubmitted","inputs":[{"name":"reviewerId","type":"uint256","indexed":true,"internalType":"uint256"},{"name":"targetId","type":"uint256","indexed":true,"internalType":"uint256"},{"name":"sentiment","type":"uint8","indexed":false,"internalType":"enum MoltReview.Sentiment"}],"anonymous":false},{"type":"event","name":"ReviewUpdated","inputs":[{"name":"reviewerId","type":"uint256","indexed":true,"internalType":"uint256"},{"name":"targetId","type":"uint256","indexed":true,"internalType":"uint256"},{"name":"sentiment","type":"uint8","indexed":false,"internalType":"enum MoltReview.Sentiment"}],"anonymous":false},{"type":"error","name":"AlreadyReviewed","inputs":[]},{"type":"error","name":"CannotReviewSelf","inputs":[]},{"type":"error","name":"NotRegistered","inputs":[]},{"type":"error","name":"NotReviewed","inputs":[]},{"type":"error","name":"TargetNotRegistered","inputs":[]}],"bytecode":{"object":"0x60a060405234801561000f575f5ffd5b50604051611a36380380611a36833981810160405281019061003191906100c9565b8073ffffffffffffffffffffffffffffffffffffffff1660808173ffffffffffffffffffffffffffffffffffffffff1681525050506100f4565b5f5ffd5b5f73ffffffffffffffffffffffffffffffffffffffff82169050919050565b5f6100988261006f565b9050919050565b6100a88161008e565b81146100b2575f5ffd5b50565b5f815190506100c38161009f565b92915050565b5f602082840312156100de576100dd61006b565b5b5f6100eb848285016100b5565b91505092915050565b6080516119156101215f395f818161023c0152818161034f01528181610a0c0152610df201526119155ff3fe608060405234801561000f575f5ffd5b506004361061009c575f3560e01c8063965c469f11610064578063965c469f146101825780639d4a22551461019e578063ab60636c146101ce578063e2367890146101ec578063fad903c31461020a5761009c565b806302ea2001146100a05780635d75135a146100bc5780637c30c1ba146100ec5780638d01e7121461011c57806390067e311461014e575b5f5ffd5b6100ba60048036038101906100b59190610ef9565b61023a565b005b6100d660048036038101906100d19190610f7d565b6106aa565b6040516100e39190610fb7565b60405180910390f35b61010660048036038101906101019190610fd0565b6106c6565b6040516101139190611028565b60405180910390f35b61013660048036038101906101319190610f7d565b6106f0565b60405161014593929190611041565b60405180910390f35b61016860048036038101906101639190610fd0565b61092d565b604051610179959493929190611159565b60405180910390f35b61019c60048036038101906101979190610ef9565b610a0a565b005b6101b860048036038101906101b39190610f7d565b610c9d565b6040516101c59190611345565b60405180910390f35b6101d6610df0565b6040516101e391906113df565b60405180910390f35b6101f4610e14565b6040516102019190610fb7565b60405180910390f35b610224600480360381019061021f9190610fd0565b610e1a565b6040516102319190610fb7565b60405180910390f35b7f000000000000000000000000000000000000000000000000000000000000000073ffffffffffffffffffffffffffffffffffffffff1663c41a360a866040518263ffffffff1660e01b81526004016102939190610fb7565b602060405180830381865afa1580156102ae573d5f5f3e3d5ffd5b505050506040513d601f19601f820116820180604052508101906102d29190611433565b73ffffffffffffffffffffffffffffffffffffffff163373ffffffffffffffffffffffffffffffffffffffff1614610336576040517faba4733900000000000000000000000000000000000000000000000000000000815260040160405180910390fd5b5f73ffffffffffffffffffffffffffffffffffffffff167f000000000000000000000000000000000000000000000000000000000000000073ffffffffffffffffffffffffffffffffffffffff1663c41a360a866040518263ffffffff1660e01b81526004016103a69190610fb7565b602060405180830381865afa1580156103c1573d5f5f3e3d5ffd5b505050506040513d601f19601f820116820180604052508101906103e59190611433565b73ffffffffffffffffffffffffffffffffffffffff1603610432576040517fd27b87e200000000000000000000000000000000000000000000000000000000815260040160405180910390fd5b83850361046b576040517f85ea03d700000000000000000000000000000000000000000000000000000000815260040160405180910390fd5b60015f8681526020019081526020015f205f8581526020019081526020015f205f9054906101000a900460ff16156104cf576040517f96c3b41100000000000000000000000000000000000000000000000000000000815260040160405180910390fd5b6001805f8781526020019081526020015f205f8681526020019081526020015f205f6101000a81548160ff0219169083151502179055505f5f8581526020019081526020015f208054905060025f8781526020019081526020015f205f8681526020019081526020015f208190555060035f8154809291906105509061148b565b91905055505f5f8581526020019081526020015f206040518060a0016040528087815260200186815260200185600281111561058f5761058e611076565b5b815260200184848080601f0160208091040260200160405190810160405280939291908181526020018383808284375f81840152601f19601f82011690508083019250505050505050815260200142815250908060018154018082558091505060019003905f5260205f2090600502015f909190919091505f820151815f0155602082015181600101556040820151816002015f6101000a81548160ff0219169083600281111561064357610642611076565b5b0217905550606082015181600301908161065d91906116f3565b5060808201518160040155505083857faed831eb10e3fb6d2e41f45b25c6cc91bb2538173e7eea06fe90f845ce571ba88560405161069b91906117c2565b60405180910390a35050505050565b5f5f5f8381526020019081526020015f20805490509050919050565b6001602052815f5260405f20602052805f5260405f205f915091509054906101000a900460ff1681565b5f5f5f5f5f5f8681526020019081526020015f20805480602002602001604051908101604052809291908181526020015f905b8282101561083a578382905f5260205f2090600502016040518060a00160405290815f820154815260200160018201548152602001600282015f9054906101000a900460ff16600281111561077b5761077a611076565b5b600281111561078d5761078c611076565b5b81526020016003820180546107a19061152c565b80601f01602080910402602001604051908101604052809291908181526020018280546107cd9061152c565b80156108185780601f106107ef57610100808354040283529160200191610818565b820191905f5260205f20905b8154815290600101906020018083116107fb57829003601f168201915b5050505050815260200160048201548152505081526020019060010190610723565b5050505090505f5f90505b81518110156109245760028081111561086157610860611076565b5b828281518110610874576108736117db565b5b602002602001015160400151600281111561089257610891611076565b5b036108aa5784806108a29061148b565b955050610917565b600160028111156108be576108bd611076565b5b8282815181106108d1576108d06117db565b5b60200260200101516040015160028111156108ef576108ee611076565b5b036109075783806108ff9061148b565b945050610916565b82806109129061148b565b9350505b5b8080600101915050610845565b50509193909250565b5f602052815f5260405f208181548110610945575f80fd5b905f5260205f2090600502015f9150915050805f015490806001015490806002015f9054906101000a900460ff16908060030180546109839061152c565b80601f01602080910402602001604051908101604052809291908181526020018280546109af9061152c565b80156109fa5780601f106109d1576101008083540402835291602001916109fa565b820191905f5260205f20905b8154815290600101906020018083116109dd57829003601f168201915b5050505050908060040154905085565b7f000000000000000000000000000000000000000000000000000000000000000073ffffffffffffffffffffffffffffffffffffffff1663c41a360a866040518263ffffffff1660e01b8152600401610a639190610fb7565b602060405180830381865afa158015610a7e573d5f5f3e3d5ffd5b505050506040513d601f19601f82011682018060405250810190610aa29190611433565b73ffffffffffffffffffffffffffffffffffffffff163373ffffffffffffffffffffffffffffffffffffffff1614610b06576040517faba4733900000000000000000000000000000000000000000000000000000000815260040160405180910390fd5b60015f8681526020019081526020015f205f8581526020019081526020015f205f9054906101000a900460ff16610b69576040517f1838333900000000000000000000000000000000000000000000000000000000815260040160405180910390fd5b5f60025f8781526020019081526020015f205f8681526020019081526020015f20549050835f5f8781526020019081526020015f208281548110610bb057610baf6117db565b5b905f5260205f2090600502016002015f6101000a81548160ff02191690836002811115610be057610bdf611076565b5b021790555082825f5f8881526020019081526020015f208381548110610c0957610c086117db565b5b905f5260205f2090600502016003019182610c25929190611812565b50425f5f8781526020019081526020015f208281548110610c4957610c486117db565b5b905f5260205f2090600502016004018190555084867f8eb73582994522b24d32a31fdf99dbc1ec23d4b3734b219eaeaab0c09d96005386604051610c8d91906117c2565b60405180910390a3505050505050565b60605f5f8381526020019081526020015f20805480602002602001604051908101604052809291908181526020015f905b82821015610de5578382905f5260205f2090600502016040518060a00160405290815f820154815260200160018201548152602001600282015f9054906101000a900460ff166002811115610d2657610d25611076565b5b6002811115610d3857610d37611076565b5b8152602001600382018054610d4c9061152c565b80601f0160208091040260200160405190810160405280929190818152602001828054610d789061152c565b8015610dc35780601f10610d9a57610100808354040283529160200191610dc3565b820191905f5260205f20905b815481529060010190602001808311610da657829003601f168201915b5050505050815260200160048201548152505081526020019060010190610cce565b505050509050919050565b7f000000000000000000000000000000000000000000000000000000000000000081565b60035481565b6002602052815f5260405f20602052805f5260405f205f91509150505481565b5f5ffd5b5f5ffd5b5f819050919050565b610e5481610e42565b8114610e5e575f5ffd5b50565b5f81359050610e6f81610e4b565b92915050565b60038110610e81575f5ffd5b50565b5f81359050610e9281610e75565b92915050565b5f5ffd5b5f5ffd5b5f5ffd5b5f5f83601f840112610eb957610eb8610e98565b5b8235905067ffffffffffffffff811115610ed657610ed5610e9c565b5b602083019150836001820283011115610ef257610ef1610ea0565b5b9250929050565b5f5f5f5f5f60808688031215610f1257610f11610e3a565b5b5f610f1f88828901610e61565b9550506020610f3088828901610e61565b9450506040610f4188828901610e84565b935050606086013567ffffffffffffffff811115610f6257610f61610e3e565b5b610f6e88828901610ea4565b92509250509295509295909350565b5f60208284031215610f9257610f91610e3a565b5b5f610f9f84828501610e61565b91505092915050565b610fb181610e42565b82525050565b5f602082019050610fca5f830184610fa8565b92915050565b5f5f60408385031215610fe657610fe5610e3a565b5b5f610ff385828601610e61565b925050602061100485828601610e61565b9150509250929050565b5f8115159050919050565b6110228161100e565b82525050565b5f60208201905061103b5f830184611019565b92915050565b5f6060820190506110545f830186610fa8565b6110616020830185610fa8565b61106e6040830184610fa8565b949350505050565b7f4e487b71000000000000000000000000000000000000000000000000000000005f52602160045260245ffd5b600381106110b4576110b3611076565b5b50565b5f8190506110c4826110a3565b919050565b5f6110d3826110b7565b9050919050565b6110e3816110c9565b82525050565b5f81519050919050565b5f82825260208201905092915050565b8281835e5f83830152505050565b5f601f19601f8301169050919050565b5f61112b826110e9565b61113581856110f3565b9350611145818560208601611103565b61114e81611111565b840191505092915050565b5f60a08201905061116c5f830188610fa8565b6111796020830187610fa8565b61118660408301866110da565b81810360608301526111988185611121565b90506111a76080830184610fa8565b9695505050505050565b5f81519050919050565b5f82825260208201905092915050565b5f819050602082019050919050565b6111e381610e42565b82525050565b6111f2816110c9565b82525050565b5f82825260208201905092915050565b5f611212826110e9565b61121c81856111f8565b935061122c818560208601611103565b61123581611111565b840191505092915050565b5f60a083015f8301516112555f8601826111da565b50602083015161126860208601826111da565b50604083015161127b60408601826111e9565b50606083015184820360608601526112938282611208565b91505060808301516112a860808601826111da565b508091505092915050565b5f6112be8383611240565b905092915050565b5f602082019050919050565b5f6112dc826111b1565b6112e681856111bb565b9350836020820285016112f8856111cb565b805f5b85811015611333578484038952815161131485826112b3565b945061131f836112c6565b925060208a019950506001810190506112fb565b50829750879550505050505092915050565b5f6020820190508181035f83015261135d81846112d2565b905092915050565b5f73ffffffffffffffffffffffffffffffffffffffff82169050919050565b5f819050919050565b5f6113a76113a261139d84611365565b611384565b611365565b9050919050565b5f6113b88261138d565b9050919050565b5f6113c9826113ae565b9050919050565b6113d9816113bf565b82525050565b5f6020820190506113f25f8301846113d0565b92915050565b5f61140282611365565b9050919050565b611412816113f8565b811461141c575f5ffd5b50565b5f8151905061142d81611409565b92915050565b5f6020828403121561144857611447610e3a565b5b5f6114558482850161141f565b91505092915050565b7f4e487b71000000000000000000000000000000000000000000000000000000005f52601160045260245ffd5b5f61149582610e42565b91507fffffffffffffffffffffffffffffffffffffffffffffffffffffffffffffffff82036114c7576114c661145e565b5b600182019050919050565b7f4e487b71000000000000000000000000000000000000000000000000000000005f52604160045260245ffd5b7f4e487b71000000000000000000000000000000000000000000000000000000005f52602260045260245ffd5b5f600282049050600182168061154357607f821691505b602082108103611556576115556114ff565b5b50919050565b5f819050815f5260205f209050919050565b5f6020601f8301049050919050565b5f82821b905092915050565b5f600883026115b87fffffffffffffffffffffffffffffffffffffffffffffffffffffffffffffffff8261157d565b6115c2868361157d565b95508019841693508086168417925050509392505050565b5f6115f46115ef6115ea84610e42565b611384565b610e42565b9050919050565b5f819050919050565b61160d836115da565b611621611619826115fb565b848454611589565b825550505050565b5f5f905090565b611638611629565b611643818484611604565b505050565b5b818110156116665761165b5f82611630565b600181019050611649565b5050565b601f8211156116ab5761167c8161155c565b6116858461156e565b81016020851015611694578190505b6116a86116a08561156e565b830182611648565b50505b505050565b5f82821c905092915050565b5f6116cb5f19846008026116b0565b1980831691505092915050565b5f6116e383836116bc565b9150826002028217905092915050565b6116fc826110e9565b67ffffffffffffffff811115611715576117146114d2565b5b61171f825461152c565b61172a82828561166a565b5f60209050601f83116001811461175b575f8415611749578287015190505b61175385826116d8565b8655506117ba565b601f1984166117698661155c565b5f5b828110156117905784890151825560018201915060208501945060208101905061176b565b868310156117ad57848901516117a9601f8916826116bc565b8355505b6001600288020188555050505b505050505050565b5f6020820190506117d55f8301846110da565b92915050565b7f4e487b71000000000000000000000000000000000000000000000000000000005f52603260045260245ffd5b5f82905092915050565b61181c8383611808565b67ffffffffffffffff811115611835576118346114d2565b5b61183f825461152c565b61184a82828561166a565b5f601f831160018114611877575f8415611865578287013590505b61186f85826116d8565b8655506118d6565b601f1984166118858661155c565b5f5b828110156118ac57848901358255600182019150602085019450602081019050611887565b868310156118c957848901356118c5601f8916826116bc565b8355505b6001600288020188555050505b5050505050505056fea264697066735822122011dabdd6b09827cd9a4d90ac18e4faf7d6eba7a179dacb7f6aca5c94e56f0fa564736f6c634300081c0033","linkReferences":{}},"methodIdentifiers":{"getReviewCount(uint256)":"5d75135a","getReviews(uint256)":"9d4a2255","getSentimentCounts(uint256)":"8d01e712","hasReviewed(uint256,uint256)":"7c30c1ba","profile()":"ab60636c","review(uint256,uint256,uint8,string)":"02ea2001","reviewIndex(uint256,uint256)":"fad903c3","reviewsOf(uint256,uint256)":"90067e31","totalReviews()":"e2367890","updateReview(uint256,uint256,uint8,string)":"965c469f"},"id":1}